:100000000C94D8050C9400060C9400060C94000681
:100010000C9400060C9400060C9400060C94000648
:100020000C9400060C9400060C9400060C94000638
:100030000C9400060C9400060C9400060C94000628
:100040000C941D180C9400060C948D180C946718D1
:100050000C9400060C9400060C9400060C94000608
:100060000C9400060C94000600407A10F35A00A08D
:10007000724E18090010A5D4E80000E87648170071
:1000800000E40B54020000CA9A3B000000E1F505B1
:10009000000080969800000040420F000000A086FB
:1000A00001000000102700000000E803000000002D
:1000B0006400000000000A000000000001000000D1
:1000C00000002C76D888DC674F0823DFC1DFAE59EB
:1000D000E1B1B796E5E3E453C63AE651997696E87E
:1000E000E6C28426EB898C9B62ED407C6FFCEFBC02
:1000F0009C9F40F2BAA56FA5F490055A2AF75C932D
:100100006B6CF9676DC11BFCE0E40D47FEF520E662
:10011000B500D0ED902E0300943577050080841E45
:10012000080000204E0A000000C80C333333330FA0
:10013000986E12831141EF8D2114893BE65516CF3D
:10014000FEE6DB18D1844B381BF77C1D901DA4BB49
:10015000E424203284725E228100C9F124ECA1E5FE
:100160003D2700000000003E5B4F5B3E3E6B4F6B47
:100170003E1C3E7C3E1C183C7E3C181C577D571C88
:100180001C5E7F5E1C00183C1800FFE7C3E7FF0001
:1001900018241800FFE7DBE7FF30483A060E26294F
:1001A000792926407F050507407F05253F5A3CE712
:1001B0003C5A7F3E1C1C08081C1C3E7F14227F22D8
:1001C000145F5F005F5F06097F017F006689956AA3
:1001D000606060606094A2FFA29408047E0408102E
:1001E000207E201008082A1C08081C2A08081E1057
:1001F0001010100C1E0C1E0C30383E3830060E3E0F
:100200000E06000000000000005F0000000700076D
:1002100000147F147F14242A7F2A12231308646297
:1002200036495620500008070300001C22410000F8
:1002300041221C002A1C7F1C2A08083E0808008056
:1002400070300008080808080000606000201008EE
:1002500004023E5149453E00427F400072494949EF
:10026000462141494D331814127F10274545453921
:100270003C4A494931412111090736494949364625
:100280004949291E00001400000040340000000805
:1002900014224114141414140041221408020159A8
:1002A00009063E415D594E7C1211127C7F49494935
:1002B000363E414141227F4141413E7F49494941CA
:1002C0007F090909013E414151737F0808087F00F9
:1002D000417F41002040413F017F081422417F407F
:1002E0004040407F021C027F7F0408107F3E414156
:1002F000413E7F090909063E4151215E7F091929C6
:1003000046264949493203017F01033F4040403FAF
:100310001F2040201F3F4038403F631408146303F0
:10032000047804036159494D43007F41414102046F
:10033000081020004141417F040201020440404076
:100340004040000307080020545478407F2844446C
:10035000383844444428384444287F385454541886
:1003600000087E090218A4A49C787F080404780081
:10037000447D40002040403D007F10284400004163
:100380007F40007C047804787C0804047838444476
:100390004438FC1824241818242418FC7C0804046D
:1003A00008485454542404043F44243C4040207CD6
:1003B0001C2040201C3C4030403C44281028444C29
:1003C0009090907C4464544C4400083641000000F6
:1003D000770000004136080002010204023C262397
:1003E000263C1EA1A161123A4040207A385454554F
:1003F0005921555579412254547842215554784019
:1004000020545579400C1E527212395555555939A0
:100410005454545939555454580000457C410002F5
:10042000457D420001457C407D1211127DF028255A
:1004300028F07C545545002054547C547C0A097F94
:100440004932494949323A4444443A324A484830A8
:100450003A4141217A3A42402078009DA0A07D3D5A
:100460004242423D3D4040403D3C24FF2424487EE2
:100470004943662B2FFC2F2BFF0929F620C0887ECD
:10048000090320545479410000447D413048484AD2
:1004900032384040227A007A0A0A727D0D19317D85
:1004A0002629292F28262929292630484D40203859
:1004B0000808080808080808382F10C8ACBA2F1018
:1004C0002834FA00007B000008142A142222142A7F
:1004D00014085500550055AA55AA55AAFF55FF55B1
:1004E000FF000000FF00101010FF00141414FF00A4
:1004F0001010FF00FF1010F010F0141414FC001482
:1005000014F700FF0000FF00FF1414F404FC14149F
:1005100017101F10101F101F1414141F001010109C
:10052000F0000000001F101010101F10101010F02D
:1005300010000000FF101010101010101010FF100D
:10054000000000FF140000FF00FF00001F10170054
:1005500000FC04F414141710171414F404F400002D
:10056000FF00F714141414141414F700F7141414DF
:10057000171410101F101F141414F4141010F0107E
:10058000F000001F101F0000001F14000000FC14EA
:100590000000F010F01010FF10FF141414FF1410DE
:1005A00010101F00000000F010FFFFFFFFFFF0F031
:1005B000F0F0F0FFFFFF0000000000FFFF0F0F0F43
:1005C0000F0F3844443844FC4A4A4A347E0202063B
:1005D00006027E027E0263554941633844443C046E
:1005E000407E201E2006027E020299A5E7A5991CE6
:1005F0002A492A1C4C7201724C304A4D4D30304809
:10060000784830BC625A463D3E494949007E010166
:10061000017E2A2A2A2A2A44445F444440514A44FB
:100620004040444A51400000FF0103E080FF0000C9
:1006300008086B6B083612362436060F090F0600C1
:100640000018180000001010003040FF0101001FCA
:1006500001011E00191D1712003C3C3C3C0000002B
:1006600000000901809611800A3A81550A36010876
:100670002A04000000F02B040000014021800A132E
:10068000800A29800A3D3D3D3D3D3D3D3D3D3D3D8E
:100690003D3D3D3D3D3D3D3D3D3D3D3D3D3D3D3D8A
:1006A0003D3D3D3D3D3D3D3D3D3D3D3D3D002D20E4
:1006B000D09AD0B0D180D182D0B8D0BDD0BAD0B08D
:1006C00020D0B5D181D182D18C3A20D0BFD180D079
:1006D000B820D183D0B7D0BAD0BED0BC20D181D180
:1006E00082D0B5D0BAD0BBD0B520D0BCD0BED0B6A9
:1006F000D0BDD0BE206B446973706C6179496E695E
:10070000744E6174697665323430783332303D66C8
:10071000616C73652E002D206B446973706C617978
:10072000526F746174696F6E20312E2E3320D0B5F4
:10073000D181D0BBD0B820D0BAD0B0D180D182D0B6
:10074000B8D0BDD0BAD0B020D181D0BCD0B5D1897D
:10075000D0B5D0BDD0B02FD0BFD0BED0B2D191D106
:1007600080D0BDD183D182D0B02E002D20D092D1A7
:1007700081D19120C2ABD0B1D0B5D0BBD0BED0B565
:10078000C2BB20D0BFD0BED181D0BBD0B52066695E
:100790006C6C20424C41434B3A20D0BFD0BED0BFFE
:1007A000D180D0BED0B1D183D0B9D182D0B5206BA9
:1007B000446973706C6179496E76657274436F6CCD
:1007C0006F72733D747275652028D0B8D0BDD0B2F9
:1007D000D0B5D180D181D0B8D18F20D181D182D074
:1007E000B5D0BAD0BBD0B0292E002D20D09FD0BE1E
:1007F000D0BCD0B5D0BDD18FD0B9D182D0B5206B0F
:10080000446973706C6179537069446174614D6FB0
:100810006465203020D0B8D0BBD0B8203320283D2C
:100820005350495F4D4F4445332920D0B8206B4485
:100830006973706C61794176725370694469766945
:100840006465722036342028D0BCD0B5D0B4D0BB7B
:10085000D0B5D0BDD0BDD0B5D0B5292E002D20D07B
:100860009DD0B5D18220D186D0B2D0B5D182D0BEB4
:10087000D0B22C20D182D0BED0BBD18CD0BAD0BEC9
:1008800020D0B1D0B5D0BBD18BD0B920D18DD0BACA
:10089000D180D0B0D0BD3A20D187D0B0D189D0B5E9
:1008A00020D0B2D181D0B5D0B3D0BE20D0BDD0B58C
:1008B000D1822053504920284D4F53492044313193
:1008C0002053434B204431332043532044313020C4
:1008D00044432044382052535420443920474E4446
:1008E000292E002D20D092D0B8D0B4D0BDD18B20ED
:1008F000D181D0BCD0B5D0BDD18B20424C41434B2F
:100900002F5245442F475245454E2F424C55453AAC
:1009100020D0BCD0B0D182D180D0B8D186D0B02088
:10092000D0B82053504920D0B220D186D0B5D0BB0A
:10093000D0BED0BC20D180D0B0D0B1D0BED182D07A
:10094000B0D18ED1822E00496E746572707265745A
:100950003A00576869746520317078206672616D5D
:1009600065206F6E20626C61636B00486F6C642061
:10097000424C41434B20616761696E00486F6C6473
:10098000205748495445207E327300486F6C6420DC
:10099000424C5545207E327300486F6C64204752AC
:1009A00045454E207E327300486F6C6420524544AA
:1009B000207E327300486F6C6420424C41434B20D0
:1009C000E2809420D0B4D0BED0BBD0B6D0BDD0BED3
:1009D00020D0B1D18BD182D18C20D182D0B5D0BCE6
:1009E000D0BDD0BED0B520D0BFD0BED0BBD0B520FA
:1009F000D0BFD180D0B820D0B2D0BAD0BBD18ED1A8
:100A000087D0B5D0BDD0BDD0BED0B920D0BFD0BE6C
:100A1000D0B4D181D0B2D0B5D182D0BAD0B520284F
:100A20007ED0BDD0B520D0B1D0B5D0BBD0BED0B572
:100A3000292E00696E76657274446973706C6179F1
:100A40002866616C73652900496E697420535049AA
:100A50002F646973706C61792E2E2E00D098D0BDF2
:100A6000D0B8D186D0B8D0B0D0BBD0B8D0B7D0B085
:100A7000D186D0B8D18F20D0BCD0B0D182D180D097
:100A8000B8D186D18B3B20D0B220D0BAD0BED0BD59
:100A9000D186D0B520D181D0B0D0BCD0BED182D04B
:100AA000B5D181D182D0B020D0BFD0BE20D183D0EB
:100AB000BCD0BED0BBD187D0B0D0BDD0B8D18E20F5
:100AC000D0B1D0B5D0B720D0BCD0B8D0B3D0B0D092
:100AD000BDD0B8D18F20424C2E00202D3E20416445
:100AE000616672756974206D6F646520307800539B
:100AF0005049207265717565737420636667206B59
:100B0000446973706C6179537069446174614D6FAD
:100B100064653D00207820005549206C6F6769634B
:100B2000616C20572078204820003D3D3D3D3D3DF3
:100B30003D3D2053543737383920626F6F7420732E
:100B4000656C662D74657374203D3D3D3D3D3D3DB6
:100B50003D000000000000240027002A00000000E3
:100B60000023002600290000000008000201000008
:100B70000304070000000000000000010204081048
:100B80002040800102040810200102040810200007
:100B9000000000250028002B0004040404040404C1
:100BA0000402020202020203030303030300BF184C
:100BB00011241FBECFEFD8E0DEBFCDBF11E0A0E013
:100BC000B1E0ECE7F1E502C005900D92AA3EB10755
:100BD000D9F723E0AAEEB1E001C01D92AF33B2070E
:100BE000E1F715E0C8EDD5E004C02197FE010E94B1
:100BF0007526C73DD107C9F70E94251A0C94BC2859
:100C00000C94000081E480937C0080917A008064E1
:100C100080937A0080917A0086FDFCCF80917800E5
:100C2000909179000895833081F028F4813099F013
:100C30008230A9F008958730A9F08830C9F0843057
:100C4000B1F4809180008F7D03C0809180008F7708
:100C500080938000089584B58F7784BD089584B50E
:100C60008F7DFBCF8091B0008F778093B000089587
:100C70008091B0008F7DF9CFCF93DF93E9E6FBE061
:100C80008491EDE7FBE0D491EBE9FBE0C491CC2348
:100C9000A1F081110E941306EC2FF0E0EE0FFF1F70
:100CA000E35AF44FA591B491EC91ED2381E090E0EB
:100CB00009F480E0DF91CF91089580E090E0FACFD1
:100CC0001F93CF93DF93282F30E0F901E959F44FB8
:100CD0008491F901E558F44FD491F901E756F44FA6
:100CE000C491CC23A9F0162F81110E941306EC2F7A
:100CF000F0E0EE0FFF1FE157F44FA591B4918FB7CD
:100D0000F894EC91111108C0D095DE23DC938FBFCD
:100D1000DF91CF911F910895DE2BF8CFCF93DF9312
:100D200090E0FC01E558F44F24918756944FFC0164
:100D300084918823C9F090E0880F991FFC01ED5A37
:100D4000F44FA591B491FC01E157F44FC591D491B2
:100D500061110DC09FB7F8948C91209582238C93DC
:100D60008881282328839FBFDF91CF910895623027
:100D700051F49FB7F8943C91822F809583238C93F4
:100D8000E8812E2BEFCF8FB7F894EC912E2B2C937C
:100D90008FBFEACF3FB7F8948091F0019091F101B5
:100DA000A091F201B091F30126B5A89B05C02F3F99
:100DB00019F00196A11DB11D3FBFBA2FA92F982F81
:100DC0008827BC01CD01620F711D811D911D42E07C
:100DD000660F771F881F991F4A95D1F708958F9244
:100DE0009F92AF92BF92CF92DF92EF92FF926B01F0
:100DF0007C010E94CA064B015C01C114D104E104CC
:100E0000F104B9F00E94CA06681979098A099B0998
:100E1000683E73408105910580F321E0C21AD10834
:100E2000E108F10888EE880E83E0981EA11CB11C31
:100E3000E4CFFF90EF90DF90CF90BF90AF909F9066
:100E40008F9008952FB7F8946091EC017091ED01A7
:100E50008091EE019091EF012FBF0895AF92BF9264
:100E6000CF92DF92EF92FF920F931F93CF93DF9376
:100E70006C017B018B01040F151FEB015E01AE18A5
:100E8000BF08C017D10759F06991D601ED91FC91C7
:100E90000190F081E02DC6010995892B79F7C501F4
:100EA000DF91CF911F910F91FF90EF90DF90CF9046
:100EB000BF90AF900895FC01538D448D252F30E0F5
:100EC000842F90E0821B930B541710F0CF96089557
:100ED00001970895FC01918D828D981761F0A28D84
:100EE000AE0FBF2FB11D5D968C91928D9F5F9F734A
:100EF000928F90E008958FEF9FEF0895FC01918D00
:100F0000828D981731F0828DE80FF11D858D90E06C
:100F100008958FEF9FEF0895FC01918D228D892F09
:100F200090E0805C9F4F821B91098F7399270895F1
:100F300084EF91E00E948C0721E0892B09F420E0E6
:100F4000822F089580E090E0892B29F00E94980775
:100F500081110C9400000895FC01A48DA80FB92FF5
:100F6000B11DA35ABF4F2C91848D90E001968F73D1
:100F70009927848FA689B7892C93A089B1898C91F0
:100F8000837080648C93938D848D981306C002883F
:100F9000F389E02D80818F7D80830895EF92FF9209
:100FA0000F931F93CF93DF93EC0181E0888F9B8D8C
:100FB0008C8D98131AC0E889F989808185FF15C046
:100FC0009FB7F894EE89FF896083E889F989808169
:100FD0008370806480839FBF81E090E0DF91CF9138
:100FE0001F910F91FF90EF900895F62E0B8D10E05A
:100FF0000F5F1F4F0F731127E02E8C8D8E110CC0C9
:101000000FB607FCFACFE889F989808185FFF5CF13
:10101000CE010E94AC07F1CFEB8DEC0FFD2FF11D3F
:10102000E35AFF4FF0829FB7F8940B8FEA89FB8950
:1010300080818062CFCF0F931F93CF93DF938C017A
:10104000D0E0C0E0F801EC0FFD1F6491662341F091
:1010500084EF91E00E94CE07892B11F02196F2CF08
:10106000CE01DF91CF911F910F910895CF93DF9320
:10107000EC01888D8823B9F0AA89BB89E889F989B0
:101080008C9185FD03C0808186FD0DC00FB607FCE5
:10109000F7CF8C9185FFF2CF808185FFEDCFCE0118
:1010A0000E94AC07E9CFDF91CF910895FC01A5A183
:1010B000B6A18C9192A589238C93A5A1B6A18C9100
:1010C00091A5892B8C930895DC019396ED91FC9169
:1010D0009497908198968C91892380830895DC0160
:1010E0009396ED91FC919497908197968C91892B92
:1010F00080830895DC019196ED91FC919297908107
:1011000096968C91892380830895DC019196ED91C8
:10111000FC919297908195968C91892B808308956C
:10112000CF92DF92EF92FF921F93CF93DF93EC0168
:101130006A017B018DA9811123C08F2D9927AA27D0
:10114000BB278EBD0DB407FEFDCFC701AA27BB2765
:101150008EBD0DB407FEFDCFBB27AF2D9E2D8D2D6F
:101160008EBD0DB407FEFDCFCEBC0DB407FEFDCF86
:10117000DF91CF911F91FF90EF90DF90CF90089576
:101180008130B1F410E2CE01F7FE0FC00E94850855
:10119000CE010E946F08CE010E946408CC0CDD1CB9
:1011A000EE1CFF1C115079F7E3CF0E947A08F0CFB4
:1011B000EF8DF8A18F2D9927AA27BB278083CE0119
:1011C0000E945608EF8DF8A1C701AA27BB2780838C
:1011D000CE010E945608EF8DF8A1BB27AF2D9E2DA2
:1011E0008D2D8083CE010E945608EF8DF8A1C0821C
:1011F000CE01DF91CF911F91FF90EF90DF90CF90C4
:101200000C945608FF920F931F93CF93DF93EC013A
:101210008B018DA981110EC01EBD0DB407FEFDCF3F
:101220000EBD0DB407FEFDCFDF91CF911F910F9141
:10123000FF9008958130B1F490E1F92ECE0117FFAF
:101240000EC00E948508CE010E946F08CE010E9448
:101250006408000F111FFA94F110F0CFE5CF0E943F
:101260007A08F1CFEF8DF8A11083CE010E945608C5
:10127000EF8DF8A10083CE01DF91CF911F910F91E7
:10128000FF900C9456080F931F93CF93DF93EC01BC
:10129000162F8DA9811109C06EBD0DB407FEFDCFBB
:1012A000DF91CF911F910F910895813099F408E05B
:1012B000CE0117FF0CC00E948508CE010E946F0866
:1012C000110FCE010E946408015091F7E9CF0E94EE
:1012D0007A08F3CFEF8DF8A16083CE01DF91CF9133
:1012E0001F910F910C945608CF93DF93EC01ED8D75
:1012F000FE8D80819CA989238083CE010E944309B1
:10130000ED8DFE8D80819BA9892B8083DF91CF910C
:1013100008958F929F92AF92BF92CF92DF92EF92F9
:10132000FF920F931F93CF93DF93EC0189AD9AAD9A
:10133000680F791F8BAD9CAD480F591F21503109A3
:10134000260F371F4901B12CA12CCB01B0E0A0E042
:10135000DC0199278827882A992AAA2ABB2A6801AA
:1013600081E0C81AD108C40ED51EF12CE12C70E022
:1013700060E0BA0155274427C42AD52AE62AF72A6D
:101380006AE2CE010E947409B501A401CE010E9457
:1013900090086BE2CE010E947409B701A601CE014C
:1013A0000E9490086CE2CE01DF91CF911F910F91C6
:1013B000FF90EF90DF90CF90BF90AF909F908F9075
:1013C0000C947409FC0185A9811104C091A182A12A
:1013D0009CBD8DBD08951F93CF93DF93EC01162F15
:1013E000E881F9810284F385E02D0995112371F0DC
:1013F0006DADCE010E947409E881F9810688F789F4
:10140000E02DCE01DF91CF911F9109946EADF1CF08
:10141000AF92BF92CF92DF92EF92FF920F931F9302
:10142000CF93DF93EC0177FD38C0888599856817E5
:1014300079079CF557FD31C08A859B854817590768
:1014400064F569017A015B01E881F9810284F38521
:10145000E02DCE010995E881F98102A4F3A5E02DE4
:1014600001E010E021E030E0A701B501CE010995CF
:10147000B601CE010E940209E881F9810688F78948
:10148000E02DCE01DF91CF911F910F91FF90EF9052
:10149000DF90CF90BF90AF900994DF91CF911F91D3
:1014A0000F91FF90EF90DF90CF90BF90AF90089595
:1014B0008F929F92AF92BF92CF92DF92EF92FF9264
:1014C0000F931F93CF93DF93EC0149015701E881FC
:1014D000F98102A4F3A5E02D09959401D8010E9499
:1014E00057266B017C01C114D104E104F10409F415
:1014F0007DC08DA9811115C081E0C81AD108E1080D
:10150000F1088FEFC816D806E806F80609F46EC091
:10151000BEBC0DB407FEFDCFAEBC0DB407FEFDCFC3
:10152000EBCF813099F581E0C81AD108E108F108C4
:101530008FEFC816D806E806F80609F457C00B2D39
:1015400018E0CE0107FF1CC00E948508CE010E9452
:101550006F08CE010E946408000F115091F70A2D08
:1015600018E0CE0107FF0FC00E948508CE010E943F
:101570006F08CE010E946408000F115091F7D3CF7D
:101580000E947A08E3CF0E947A08F0CFBA1016C002
:10159000CC0CDD1CEE1CFF1CEF8DF8A1B08281E0AD
:1015A000C81AD108E108F1088FEFC816D806E80676
:1015B000F806E1F0CE010E945608F1CF81E0C81A8A
:1015C000D108E108F1088FEFC816D806E806F8063A
:1015D00069F0EF8DF8A1B082CE010E945608EF8D20
:1015E000F8A1A082CE010E945608E8CFDF91CF91EA
:1015F0001F910F91FF90EF90DF90CF90BF90AF9031
:101600009F908F9008958F929F92AF92BF92CF92AA
:10161000DF92EF92FF920F931F93CF93DF935C01C2
:101620004B016A01E90177FD52C0DC0118968D91EA
:101630009C91681779070CF04AC0209709F447C0BD
:1016400037FF07C0C9010196C80ED91ED195C195B3
:10165000D109F50182859385C816D906C4F5A6017E
:101660004C0F5D1F9A012150310937FD30C0D7FE64
:1016700003C0EA01D12CC12C281739071CF0EC015A
:10168000CC19DD09D501ED91FC910284F385E02DA3
:10169000C501099578018E0121E030E0A601B40171
:1016A000C5010E94580AD501ED91FC910688F78981
:1016B000E02DC501DF91CF911F910F91FF90EF9029
:1016C000DF90CF90BF90AF909F908F900994DF9163
:1016D000CF911F910F91FF90EF90DF90CF90BF902F
:1016E000AF909F908F9008958F929F92AF92BF92EC
:1016F000CF92DF92EF92FF920F931F93CF93DF93DE
:101700005C016B014A01E90157FD52C0DC011A96E8
:101710008D919C91481759070CF04AC0209709F405
:1017200047C037FF07C0C9010196C80ED91ED19521
:10173000C195D109F50180859185C816D906C4F5F2
:10174000A6014C0F5D1F9A012150310937FD30C0B1
:10175000D7FE03C0EA01D12CC12C281739071CF091
:10176000EC01CC19DD09D501ED91FC910284F385E2
:10177000E02DC5010995780101E010E09E01A4016A
:10178000B601C5010E94580AD501ED91FC91068869
:10179000F789E02DC501DF91CF911F910F91FF9047
:1017A000EF90DF90CF90BF90AF909F908F90099473
:1017B000DF91CF911F910F91FF90EF90DF90CF902D
:1017C000BF90AF909F908F9008958F929F92AF920D
:1017D000BF92CF92DF92EF92FF920F931F93CF931E
:1017E000DF934C016B015A01E901209709F46CC0A9
:1017F0000115110509F468C037FF07C0C90101963A
:10180000C80ED91ED195C195D109F401A085B18525
:10181000CA16DB060CF058C017FF07C0C8010196B6
:10182000A80EB91E119501951109F40182859385C1
:10183000A816B9060CF048C0F601EC0FFD1FAF0169
:101840004150510957FD40C0B501600F711F9B0108
:101850002150310937FD38C0D7FE03C0EF01D12C2C
:10186000C12CB7FE03C08B01B12CA12C4A175B071A
:101870001CF0ED01CC19DD09281739071CF08C018B
:101880000A191B09D401ED91FC910284F385E02D26
:10189000C40109959E01A501B601C4010E94580A20
:1018A000D401ED91FC910688F789E02DC401DF9108
:1018B000CF911F910F91FF90EF90DF90CF90BF904D
:1018C000AF909F908F900994DF91CF911F910F91CE
:1018D000FF90EF90DF90CF90BF90AF909F908F9050
:1018E0000895EF92FF920F931F93CF93DF9377FDAD
:1018F00032C0DC011896ED91FC916E177F075CF504
:101900002115310541F137FF07C0F90131964E0F1E
:101910005F1F319521953109DC011A96ED91FC91FB
:101920004E175F07C4F4EA01C20FD31FDE011197FF
:10193000B7FD11C057FF03C09E0150E040E0AE1755
:10194000BF071CF09F01241B350B7801890121E0A2
:1019500030E00E94580ADF91CF911F910F91FF90C4
:10196000EF900895EF92FF920F931F93CF93DF9321
:1019700057FD31C0DC011A96ED91FC914E175F07BF
:1019800054F52115310539F137FF07C0F9013196BA
:101990006E0F7F1F319521953109DC011896ED916D
:1019A000FC916E177F07BCF4EB01C20FD31FDE0161
:1019B0001197B7FD10C077FF03C09E0170E060E093
:1019C000AE17BF071CF09F01261B370B780101E003
:1019D00010E00E94580ADF91CF911F910F91FF9064
:1019E000EF9008958F929F92AF92BF92CF92DF9225
:1019F000EF92FF920F931F93CF93DF93470121152F
:101A0000310509F44BC00115110509F447C037FF32
:101A100007C0F90131966E0F7F1F3195219531096D
:101A2000DC011896AD90BC906A157B05BCF517FFDC
:101A300007C0F80131964E0F5F1F119501951109EE
:101A4000DC011A96ED91FC914E175F073CF56B0196
:101A5000C20ED31EE6012197D7FD20C07A01E00E09
:101A6000F11ED7011197B7FD19C077FF03C096018A
:101A700070E060E057FF03C0870150E040E0CA1506
:101A8000DB051CF09501261B370BAE17BF071CF0BA
:101A90008F01041B150B74010E94580ADF91CF912E
:101AA0001F910F91FF90EF90DF90CF90BF90AF907C
:101AB0009F908F900895EF92FF920F931F93CF9373
:101AC000DF93EC0177FD22C0888599856817790737
:101AD000ECF457FD1BC08A859B8548175907B4F461
:101AE0007901E881F98102A4F3A5E02D01E010E07D
:101AF00021E030E0CE010995B701CE01DF91CF9111
:101B00001F910F91FF90EF900C940209DF91CF91FC
:101B10001F910F91FF90EF900895CF93DF93EC0109
:101B20000E94E2098FA987FD06C0EB8DFC8D8081A4
:101B30009AA989238083DF91CF91089508950F9307
:101B40001F93CF93DF93EC018B010E94E2098FA9D1
:101B500087FD06C0EB8DFC8D80819AA98923808347
:101B6000ED8DFE8D80819CA98923808366E3CE0163
:101B70000E944309ED8DFE8D80819BA9892B808376
:101B80008DA9F801823091F06081CE010E94430955
:101B90008FA987FD06C0EB8DFC8D808199A9892BCB
:101BA0008083DF91CF911F910F91089588A9882399
:101BB00059F360817181CE010E940209E9CFCF9370
:101BC000DF931F92CDB7DEB7FC0119826370668B7D
:101BD000DC01AD5BBF4F2C9130E011968C9190E011
:101BE000623031F06330C9F0613081F040EC4983FC
:101BF00032AF21AF94AF83AFBE016F5F7F4FCF0194
:101C00000E949F0D0F90DF91CF91089540EA498384
:101C100034AF23AF92AF81AFEFCF40E6F8CF0F9351
:101C20001F93CF93DF931F92CDB7DEB7FC011982CC
:101C30006370668BDC01A85BBF4F2D913C911197BF
:101C400012968D919C916230D1F1633009F440C0BD
:101C50008F010C5B1F4F6130F9F040EC4983AF01FD
:101C60004D5B5F4FDA014C9150E052AF41AFD8016C
:101C70004C9150E054AF43AF3187208793878287E0
:101C8000BE016F5F7F4FCF010E949F0D0F90DF91CC
:101C9000CF911F910F91089540EA4983D8014C914B
:101CA00050E052AF41AFDF01AA5BBF4F4C9150E013
:101CB00054AF43AF3387228791878087E1CFDF011D
:101CC000AA5BBF4F4C9150E052AF41AF1196D0CFBD
:101CD00040E64983DF01A95BBF4F4C9150E052AF12
:101CE00041AF1497E3CFFC0187A987FD06C0A38D00
:101CF000B48D9C9181A9892B8C9308950895FC0142
:101D00006370668B8481958126813781613039F0DB
:101D1000633029F091878087338722870895318740
:101D200020879387828708952F923F924F925F92E8
:101D30006F927F928F929F92AF92BF92CF92DF92DB
:101D4000EF92FF920F931F93CF93DF93CDB7DEB740
:101D50006A970FB6F894DEBF0FBECDBF9A8F898FFA
:101D60007A8369834A01D22E18870F833701BC2CEE
:101D7000DC0159962D913C915A972115310509F0B6
:101D800015C118968D919C911997681779070CF0D9
:101D9000D7C11A968D919C91481759070CF0D0C164
:101DA0004C2C512CB6E0CB9E600D711D11247C870C
:101DB0006B87161617060CF0C3C1EA2DF0E0FA8700
:101DC000E98793E0EE0FFF1F9A95E1F7F88BEF8715
:101DD000CF01840F951F181619060CF0B1C1A98DFB
:101DE000BA8D58968C91811104C0BFEABD1508F4D4
:101DF000D394A98DBA8DED91FC9111970284F3854E
:101E0000E02DCD010995B5E0DB9EC0011124E981EB
:101E1000FA81FC83EB83312C212C9C012E593E4FFF
:101E2000388F2F8B4A2D50E05E8B4D8BEF89F88DCC
:101E3000E20DF31D44919E828D82D12CC12C6981CB
:101E40007A81620D731D7A8B698B842F90E09C8B55
:101E50008B8BE98DFA8DA081B18140FF82C0F1E0CA
:101E6000BF126FC0AF126DC01C96ED91FC912F8117
:101E70003885A4014C0D5D1D69897A89898D9A8DFB
:101E80000995EB89FC89F595E7954E2F5FEFC51A0B
:101E9000D50A6D817E818D899E89680F791F7E8329
:101EA0006D8398E0C916D10481F6AFEF2A1A3A0A79
:101EB000EB81FC81E40DF51DFC83EB83F5E02F162F
:101EC000310409F0B3CF2F81388526153705B9F0D5
:101ED000A98DBA8DED91FC91B1E0BB1257C0AB1248
:101EE00055C069817A816B5F7F4F0088F189E02D51
:101EF000830128E030E0A401898D9A8D0995A98D90
:101F0000BA8DED91FC9111970688F789E02DCD01EE
:101F10006A960FB6F894DEBF0FBECDBFDF91CF91AA
:101F20001F910F91FF90EF90DF90CF90BF90AF90F7
:101F30009F908F907F906F905F904F903F902F90E9
:101F400009941E96ED91FC91EF80F88409851A851D
:101F500092014D815E816B817C81898D9A8D09957D
:101F600090CF2F8138852615370509F48ACF31E0C7
:101F7000B31207C0A31205C01C96ED91FC9193010A
:101F800078CF1E96ED91FC917301E0CF6B857C8537
:101F9000641975090684F785E02D73010F8518898A
:101FA0009201A401898D9A8D0995A9CFF9013496E2
:101FB0009491329745915491D91AB7E0DB9E400D28
:101FC000511D1124F901259134913C8B2B8BFA0181
:101FD00025903490FA013296749031963491398B71
:101FE000329664903196449041E04C1518F04A15B1
:101FF00008F07FC0662D062C000C770B7C836B836A
:10200000842D042C000C990B9E838D83A98DBA8D91
:10201000ED91FC9111970284F385E02DCD01099596
:10202000512CD12CC12CEA2DF0E0FA87E9872B2D19
:1020300030E03C872B87A401440D511D47FC5A9585
:10204000588F4F8B69817A81660D711D67FC7A9577
:102050007E876D877989C71608F051CF2C2D30E027
:102060004D815E81420F531FA985BA854A9FC001E9
:102070004B9F900D5A9F900D1124FC01E80DF91D06
:10208000F88BEF87852D612C4F89588D420F531F98
:102090005E8B4D8B671408F050C044244394480E67
:1020A000877041F4C1010196EB89FC89E20DF31DB3
:1020B000D4901C01D7FE19C0A98DBA8DED91FC9169
:1020C000662D70E0B1E0BB1219C0AB1217C02D85B0
:1020D0003E85620F731F0484F585E02D2F813885BE
:1020E0004D895E89898D9A8D0995DD0C6394842DC7
:1020F000D1CF1E821D821C821B8288CF4B815C81C6
:10210000640F751FAB85BC856A9FC0016B9F900DE6
:102110007A9F900D112469817A81680F791F068456
:10212000F785E02DEF80F88409851A859D014F859C
:102130005889898D9A8D0995D8CF570CC3948ACF29
:102140006A960FB6F894DEBF0FBECDBFDF91CF9178
:102150001F910F91FF90EF90DF90CF90BF90AF90C5
:102160009F908F907F906F905F904F903F902F90B7
:1021700008958F929F92AF92CF92EF92FF920F931A
:102180001F93CF93DF93EC01262F898D9A8D0097B3
:1021900009F051C06A30D1F41D861C868D8948E053
:1021A000849F900111248E859F85820F931F9F87A6
:1021B0008E8781E090E0DF91CF911F910F91FF908A
:1021C000EF90CF90AF909F908F9008956D3089F3EE
:1021D000CC88AD888F898823C1F08C859D8536E0B9
:1021E000C39E800D911D11244885598548175907B4
:1021F00064F44E855F851D861C8638E0A39EC00171
:102200001124840F951F9F878E87EA88FB88088991
:1022100019894E855F856C857D85CE010E94940E5F
:102220002C898C859D8546E0249F800D911D11246D
:102230009D878C87BECF6A3069F41D861C86FC01A1
:102240003896E4912D898E859F85E29F800D911DA2
:102250001124ADCF6D3009F4ACCFFC01349634912C
:10226000631708F4A6CF3296E491E61708F4A1CFDD
:10227000FC01329685909490462F431B342F47E003
:10228000349F800C911C1124F401329634913196C4
:10229000E4913323A9F1EE2399F1CC88F40135962A
:1022A000E491AD884F89442301F10E2E000CFF0B01
:1022B000E30FF11DCE9EA001CF9E500D11246C8521
:1022C0007D85460F571F68857985641775076CF4FF
:1022D0004E855F851D861C86FC013896E491AE9E76
:1022E000400D511D11245F874E87EA88FB880889BD
:1022F00019894E855F856C857D85CE010E94940E7F
:10230000F4013496E4912C898C859D85E29F800DA3
:10231000911D11248DCF6F927F928F929F92AF92D9
:10232000BF92CF92DF92EF92FF920F931F93CF93C2
:10233000DF93EC016B015A0139014801E881F98111
:102340000284F385E02D0995E881F9810288F389FB
:10235000E02D87019301A501B601CE010995A501E4
:10236000480D591D41505109E881F9810288F389CE
:10237000E02D9301B601CE010995E881F98100882D
:10238000F189E02D9401A501B601CE010995C60C95
:10239000D71CB60161507109E881F9810088F18983
:1023A000E02D9401A501CE010995E881F981068807
:1023B000F789E02DCE01DF91CF911F910F91FF9012
:1023C000EF90DF90CF90BF90AF909F908F907F90D5
:1023D0006F9009946F927F928F929F92AF92BF926B
:1023E000CF92DF92EF92FF920F931F93CF93DF93E1
:1023F0005C01EB016A01490138018701DC01ED91C3
:10240000FC916217730719F5641675062CF0962D6A
:10241000872D3A01C92ED82E9601261937092F5F2C
:102420003F4F048CF58DE02DA301BE01C501099538
:10243000DF91CF911F910F91FF90EF90DF90CF90A0
:10244000BF90AF909F908F907F906F9008954615AA
:10245000570591F42617370724F0892D4B01C22F19
:10246000D82F9E01281939092F5F3F4F068CF78D11
:10247000E02DA601B401DACF0284F385E02D0995A1
:10248000D501ED91FC910488F589E02D830194013B
:10249000A601BE01C5010995D501ED91FC91068803
:1024A000F789E02DC501DF91CF911F910F91FF902A
:1024B000EF90DF90CF90BF90AF909F908F907F90E4
:1024C0006F900994EF92FF920F931F93DC011A967D
:1024D0000D911C911B9718962D913C911997ED9198
:1024E000FC9100A0F1A1E02D7B0150E040E070E004
:1024F00060E009951F910F91FF90EF9008954F9222
:102500005F926F927F928F929F92AF92BF92CF9283
:10251000DF92EF92FF920F931F93CF93DF936C01A3
:102520002B015A0139014801DC01ED91FC91028433
:10253000F385E02D0995E201640C751CD601ED913F
:10254000FC91C615D7055CF40088F189E02D870160
:102550009401A501BE01C60109952196EFCF068819
:10256000F789E02DC601DF91CF911F910F91FF9068
:10257000EF90DF90CF90BF90AF909F908F907F9023
:102580006F905F904F9009948F929F92AF92BF92FD
:10259000CF92DF92EF92FF920F931F93CF93DF932F
:1025A000EC015B014A016901E881F9810284F3854C
:1025B000E02D099595012C0D3D1D21503109E88133
:1025C000F9810488F589E02D78018401A401B50121
:1025D000CE010995E881F9810688F789E02DCE01C1
:1025E000DF91CF911F910F91FF90EF90DF90CF90EF
:1025F000BF90AF909F908F9009948F929F92AF92CF
:10260000BF92CF92DF92EF92FF920F931F93CF93DF
:10261000DF93EC015B014A0169017801E881F981EE
:102620000284F385E02D0995C80CD91C8601015060
:102630001109E881F9810488F589E02D9501A4014B
:10264000B501CE010995E881F9810688F789E02D69
:10265000CE01DF91CF911F910F91FF90EF90DF900E
:10266000CF90BF90AF909F908F9009940895EF9274
:10267000FF920F931F93DC01ED91FC9100A0F1A15B
:10268000E02D09951F910F91FF90EF9008950F9302
:102690001F93DC01ED91FC91068CF78DE02D0995DF
:1026A0001F910F9108950F931F93DC01ED91FC9101
:1026B000048CF58DE02D09951F910F910895DC0193
:1026C000ED91FC910084F185E02D09942F923F92C9
:1026D0004F925F926F927F928F929F92AF92BF9232
:1026E000CF92DF92EF92FF920F931F93CF93DF93DE
:1026F00000D000D000D0CDB7DEB73C016A013E83E8
:102700002D83FC82EB825801A41AB50AB7FE03C0E0
:10271000B194A194B1088D809E80861A970A97FE85
:1027200003C09194819491088A149B045CF0902FCB
:10273000812F0D811E819D838E839C2D8D2D6B019C
:10274000692F782F0C151D055CF09D818E817E838D
:102750006D83692F782F902F812F8601C92ED82E57
:102760001601201A310A2B012D813E81421A530A8B
:1027700057FE03C0519441945108710137FE03C0C4
:102780003FEFE31AF30AF594E7948D819E81861753
:1027900097075CF5A1E0B0E0BA83A983C016D10623
:1027A0004CF1D301ED91FC910484F585E02D2B8152
:1027B0003C81A8016D817E818A149B041CF04D81AF
:1027C0005E81B801C3010995E418F508F7FE0AC057
:1027D0002D813E8189819A81280F391F3E832D8367
:1027E000E20CF31C0F5F1F4FD9CF2FEF3FEF3A835F
:1027F0002983D4CF26960FB6F894DEBF0FBECDBF87
:10280000DF91CF911F910F91FF90EF90DF90CF90CC
:10281000BF90AF909F908F907F906F905F904F9000
:102820003F902F900895089590E080E00895CF9311
:10283000CFB7F8948091EA01811127C0E3EAFBE069
:102840008491E5E8FBE09491E82FF0E0EE0FFF1FA4
:10285000ED5AF44FA591B491EC91E92321F461E094
:102860008AE00E94600661E08AE00E948E068CB5D4
:1028700080618CBD8CB580648CBD61E08DE00E9470
:102880008E0661E08BE00E948E068091EA018F5FE8
:102890008093EA01CFBFCF91089560E084E00E9469
:1028A000600660E085E00C946006813021F08230A3
:1028B00051F00C944D1461E084E00E94600660E0E9
:1028C00085E00C94600660E084E00E94600661E0B0
:1028D000F7CF0F931F93CF93DF93EC01CB01BA0196
:1028E000422F2CE0FE0111922A95E9F78E0122E099
:1028F0000E94A9231B86DF91CF911F910F9108950C
:102900000E94B728FB0101900020E9F73197AF0141
:10291000461B570BDC01ED91FC910280F381E02D09
:1029200009948F929F92AF92BF92EF92FF920F9372
:102930001F93CF93DF93CDB7DEB7A1970FB6F8946F
:10294000DEBF0FBECDBF7C01FA01CB0119A2223040
:1029500008F42AE08E010F5D1F4F822E912CB12CBE
:10296000A12CBF01A50194010E943526F901CA01DD
:102970006A300CF5605DD8016E938D01232B242BFA
:10298000252B79F790E080E0109721F0BD01C70179
:102990000E948214A1960FB6F894DEBF0FBECDBF81
:1029A000DF91CF911F910F91FF90EF90BF90AF906B
:1029B0009F908F900895695CDECFCF93DF93BC0129
:1029C00086EA92E00E948214EC0162E471E086EAF9
:1029D00092E00E9482148C0F9D1FDF91CF91089589
:1029E000EF92FF920F931F93CF93DF9370E060E01D
:1029F00086EA92E00E946212C2E9D2E08FEF9FEF76
:102A00009FA38EA39DA38CA381E088A789A782E0C2
:102A1000E82EF12CF9A2E8A284E090E09BA38AA31F
:102A200085E491E00E94DD140FEF1FEF2CE430E00D
:102A30004BE050E070E060E086EA92E00E94740BA8
:102A4000F9A2E8A28DE090E09BA38AA38DE491E037
:102A50000E94DD14F9A2E8A286E190E09BA38AA37C
:102A600084E591E00E94DD14F9A2E8A28FE190E0F4
:102A70009BA38AA38DE591E00E94DD14F9A2E8A250
:102A800088E290E09BA38AA386E691E00E94DD1491
:102A9000F9A2E8A281E390E09BA38AA38FE691E0EC
:102AA0000E94DD14F9A2E8A28AE390E09BA38AA326
:102AB00089E791E00E94DD14F9A2E8A283E490E0A6
:102AC0009BA38AA382E891E00E94DD14F9A2E8A208
:102AD0008CE490E09BA38AA38AE891E0DF91CF91F8
:102AE0001F910F91FF90EF900C94DD14CF93DF9323
:102AF0000E941B08EC0162E471E084EF91E00E9407
:102B000082148C0F9D1FDF91CF9108950F931F9317
:102B1000CF93DF93EC01AB0170E060E02AE00E940C
:102B200091148C0162E471E0CE010E948214800F46
:102B3000911FDF91CF911F910F910895BC0186EAFB
:102B400092E00C9482144F925F926F927F92BF92A8
:102B5000CF92DF92EF92FF920F931F93CF93DF9369
:102B6000CDB7DEB7A4970FB6F894DEBF0FBECDBFCA
:102B7000B82E390124E0CE0149960E94691424E060
:102B8000B301A801CE010D960E94691424E0B7019B
:102B9000A601CE0101960E94691470E060E086EA09
:102BA00092E00E94621202E912E08FEF9FEFF801BB
:102BB00097A386A395A384A381E080A781A782E041
:102BC000E82EF12CF1A2E0A284E090E093A382A38E
:102BD00081E991E00E94DD14F801F1A2E0A28DE00C
:102BE00090E093A382A34B2D50E04F5F5F4F70E0C6
:102BF00060E02AE086EA92E00E94911485E991E083
:102C00000E949E152AE044E050E060E070E086EA11
:102C100092E00E94911462E471E086EA92E00E94E0
:102C20008214F801F1A2E0A286E190E093A382A3CE
:102C300087E991E00E949E15CE0149960E94DD141D
:102C4000F801F1A2E0A28FE190E093A382A38AE9C8
:102C500091E00E949E15CE010D960E94DD14F801B0
:102C6000F1A2E0A288E290E093A382A38DE991E033
:102C70000E949E15CE0101960E94DD14F801F1A27A
:102C8000E0A281E390E093A382A380EA91E00E9416
:102C9000DD14A4960FB6F894DEBF0FBECDBFDF9152
:102CA000CF911F910F91FF90EF90DF90CF90BF9049
:102CB0007F906F905F904F9008954F925F926F92C8
:102CC0007F928F929F92AF92BF92CF92DF92EF92BC
:102CD000FF920F931F93CF936B017C01742EAC0175
:102CE0009B010E94B22868EA71E0811126C046016A
:102CF0005701E894B7F82FEF3FEF4FE75FE7C501C3
:102D0000B4010E94B22881110CC02FEF3FEF4FE7B2
:102D10005FE7C501B4010E94E8266CEA71E018166D
:102D200064F02FEF3FEF4FE75FE4C701B6010E9469
:102D300040281816ACF460EB71E086EA92E0CF917F
:102D40001F910F91FF90EF90DF90CF90BF90AF90C9
:102D50009F908F907F906F905F904F900C94821413
:102D60002FEF3FEF4FE75FECC701B6010E94E82667
:102D700087FDE1CF20E030E0A901C701B6010E9444
:102D8000E82610E000E087FF0AC06DE286EA92E0E4
:102D90000E94B9108C01F7FAF094F7F8F094C0E0B3
:102DA00060E070E080E09FE37C1641F020E030E0DE
:102DB00040E251E40E94ED26CF5FF6CFA7019601D5
:102DC0000E947C262B013C010E945F274B015C0185
:102DD0002AE0BC01A40186EA92E00E9491147C01E1
:102DE000E00EF11ECC23D1F1C501B4010E948E2763
:102DF0009B01AC01C301B2010E947B264B015C0127
:102E00006EE286EA92E00E94B910E80EF91EC15007
:102E100028F120E030E040E251E4C501B4010E9415
:102E200045282B013C010E945F274B01B12CA12CAE
:102E30002AE0B501A40186EA92E00E949114E80E0E
:102E4000F91EC501B4010E948E279B01AC01C3018C
:102E5000B2010E947B264B015C01D9CFC701CF9103
:102E60001F910F91FF90EF90DF90CF90BF90AF90A8
:102E70009F908F907F906F905F904F900895CF922A
:102E8000DF92EF92FF920F931F93CF93DF93EC01AA
:102E90006A017B01C114D104E104F10439F4C12CAD
:102EA00028E4D22E28EEE22EFF24F394FE01FF96B2
:102EB000C082D182E282F38281E28DAF80E28EAF66
:102EC000369610818FA987FD07C061E00E948E06AB
:102ED00061E08FA90E94600661E088AD0E948E06C5
:102EE00061E088AD0E9460068DA9811151C040E06B
:102EF00052E16AE770E0C416D506E606F70640F42C
:102F000076956795579547958F5F8630A1F787E04F
:102F1000212F2C702065982F9695922B99A3809540
:102F200081708AA3812F90E0B0E0A0E08BA39CA3E6
:102F3000ADA3BEA30E9417148EA987FD75C061E0E2
:102F40000E948E0661E08EA90E94600664E670E031
:102F500080E090E00E94EF0660E08EA90E9460068B
:102F600064E670E080E090E00E94EF0661E08EA9E8
:102F70000E94600668EC70E080E090E0DF91CF9105
:102F80001F910F91FF90EF90DF90CF900C94EF0680
:102F900009E91BE0F12C8130B9F461E08AA50E94B7
:102FA0008E0660E08AA50E94600661E08CA50E9402
:102FB0008E0660E08CA50E9460068BA587FDBCCFC5
:102FC00060E00E948E06B8CFF8018491E82FF0E00F
:102FD000EE0FFF1FE157F44F859194912F8D38A18B
:102FE0002817390741F461E08F2D0E948E0660E0BA
:102FF0008F2D0E946006F3940F5F1F4FF4E1FF12C4
:10300000E3CF61E08EA50E948E0661E08EA50E944E
:1030100060068FA587FD90CF61E00E948E0661E07B
:103020008FA50E94600688CFDF91CF911F910F91ED
:10303000FF90EF90DF90CF9008951F920F920FB600
:103040000F9211242F933F938F939F93AF93BF932E
:103050008091EC019091ED01A091EE01B091EF0112
:103060003091EB0123E0230F2D3758F50196A11D78
:10307000B11D2093EB018093EC019093ED01A0939F
:10308000EE01B093EF018091F0019091F101A091D8
:10309000F201B091F3010196A11DB11D8093F001E1
:1030A0009093F101A093F201B093F301BF91AF911E
:1030B0009F918F913F912F910F900FBE0F901F9076
:1030C000189526E8230F0296A11DB11DD2CF1F929D
:1030D0000F920FB60F9211242F933F934F935F934C
:1030E0006F937F938F939F93AF93BF93EF93FF93D0
:1030F00084EF91E00E94AC07FF91EF91BF91AF91F7
:103100009F918F917F916F915F914F913F912F91FF
:103110000F900FBE0F901F9018951F920F920FB631
:103120000F9211242F938F939F93EF93FF93E0912E
:103130000402F09105028081E0910A02F0910B02F5
:1031400082FD1BC0908180910D028F5F8F73209153
:103150000E02821741F0E0910D02F0E0EC50FE4FBC
:10316000958F80930D02FF91EF919F918F912F91F9
:103170000F900FBE0F901F9018958081F4CFCF93C2
:10318000DF93E4EFF1E01382128288EE93E0A0E097
:10319000B0E084839583A683B78384E091E0918334
:1031A000808385EC90E09587848784EC90E0978716
:1031B000868780EC90E0918B808B81EC90E0938B04
:1031C000828B82EC90E0958B848B86EC90E0978BE1
:1031D000868B118E128E138E148EA2E9B2E01C9291
:1031E000E5E9F2E081E1EF0119928A95E9F7579656
:1031F0001C921E92569720EF30E059963C932E93E6
:10320000589780E491E05B969C938E935A975D96D5
:103210003C932E935C975F969C938E935E979A96C1
:103220001C929A9791961C921E92909793961C923C
:103230001E92929781E099968C93999798968C9389
:1032400098972FEF3FEF97963C932E9396979596EE
:103250003C932E9394979B968C939B979C961C9251
:103260009C979E961C921E929D971092DB0289E07D
:103270008093DC028AE08093DD0288E08093DE02A6
:103280001092E0021092DF021092E2021092E1022C
:103290001092E3021092E4021092E5021092E6020C
:1032A0001092E7021092E80281E992E0D4969C9392
:1032B0008E93D397E1EAFBE0E491F0E0EE0FFF1F7D
:1032C000E157F44F85919491D2969C938E93D19728
:1032D000E3E8FBE084918093D902E3EAFBE0E49128
:1032E000F0E0EE0FFF1FE157F44F25913491D09697
:1032F0003C932E939F97E5E8FBE0E491E093D7029F
:10330000E095E093D802E82FE095E093DA0210927E
:10331000E9021092EA021092EB0286E191E05596E2
:103320009C938E9354971092EC021092ED0210929F
:10333000F2021092F3021092F4021092F50210922F
:10334000F6021092F7021092F8021092F90210920F
:10335000FA02EBEFF2E08CE0DF011D928A95E9F7CB
:1033600010920703109208031092090310920A03A7
:1033700010920B0310920C0310920D0310920E0387
:1033800010920F0310921003109211031092120367
:103390001092130310921403109215031092160347
:1033A000109218031092170310921A031092190327
:1033B00010921B0310921C0310921D0310921E0307
:1033C00010921F03109220031092210310922203E7
:1033D00010922303109224031092250310922603C7
:1033E00010922703109228031092290310922A03A7
:1033F00010922B0310922C0310922E0310922D0387
:103400008FEF93E09093300380932F031092320359
:10341000109231031092330310923403109235034B
:10342000109236031092370310923803109239032A
:1034300010923A0310923B0310923C0310923D030A
:1034400010923E03DF91CF910895CF93DF93CDB7D4
:10345000DEB7AC970FB6F894DEBF0FBECDBF789441
:1034600084B5826084BD84B5816084BD85B5826089
:1034700085BD85B5816085BD80916E00816080933A
:103480006E001092810080918100826080938100A3
:1034900080918100816080938100809180008160B3
:1034A000809380008091B10084608093B10080910E
:1034B000B00081608093B00080917A008460809336
:1034C0007A0080917A00826080937A0080917A00FD
:1034D000816080937A0080917A00806880937A007E
:1034E0001092C10061E084E00E948E0661E085E0F8
:1034F0000E948E060E944D1460E08FE00E948E06AE
:1035000062E082E00E948E06109295020E943C06C4
:1035100021E0892B09F020E0209396021092970277
:10352000109298021092990210929A0210929B02A5
:103530001092A0021092A1021092A2021092A30275
:103540001092A4021092A502E0910402F0910502EB
:1035500082E08083E0910002F09101021082E0910C
:103560000202F091030280E1808310920C02E0914C
:103570000802F091090286E08083E0910602F09152
:103580000702808180618083E0910602F09107024A
:10359000808188608083E0910602F091070280813B
:1035A00080688083E0910602F091070280818F7D20
:1035B000808360E570E080E090E00E94EF0682E5A5
:1035C0009BE00E9476158AE29BE00E94761588E1D6
:1035D0009BE00E941B082AE04CE450E060E070E0B1
:1035E00084EF91E00E94911484E19BE00E941B080B
:1035F0006CE171E084EF91E00E9486158FEE9AE015
:103600000E941B082AE040E050E0BA0184EF91E0FC
:103610000E9491148AED9AE00E941B0820E140E08C
:1036200050E0BA0184EF91E00E94911462E471E0ED
:1036300084EF91E00E9482148CE59AE00E94761556
:1036400062E370E080E090E00E94EF0688E49AE098
:103650000E9476150E9417148CB58C7F82608CBDF9
:103660008DB581608DBD1092EB0240E050E0BA0153
:1036700086EA92E00E943F1782E18093ED028093F8
:10368000EA0282E58093EC028093E9028CE490E008
:103690009093EF028093EE028CE191E09093F1021F
:1036A0008093F002E2E6F6E0F490E3E6F6E0FA94C6
:1036B0002FEFF21609F479C014916F0132E0C30EB6
:1036C000D11C3196E4900E2D0F7786EA92E00E948D
:1036D000E2098091DD0287FD09C0E091C102F0910D
:1036E000C20280819091D80289238083E091C30235
:1036F000F091C40280819091DA0289238083612F46
:1037000086EA92E00E944309E091C302F091C4026C
:1037100080819091D902892B8083F601912C812C94
:1037200010E080169106FCF48091DB025F0182308C
:1037300089F48091D602882369F0DF016D917D9133
:103740005D0186EA92E00E940209EFEF8E1A9E0A5E
:10375000F501E7CFBFEFAB1ABB0A649186EA92E0AE
:103760000E944309F2CF8091DD0287FD09C0E091FC
:10377000C102F091C20280819091D702892B80838F
:10378000F601E00FF11FE7FE92CF8F010F5F1F4F91
:10379000649170E06F3F710511F464EF71E090E0A7
:1037A00080E00E94EF06F80182CF60E086EA92E0B6
:1037B0000E940F0E60E086EA92E00E940F0E83E303
:1037C0009AE00E94761570E060E086EA92E00E943E
:1037D000621285EB99E00E94761560EB74E080E060
:1037E00090E00E94EF0660E078EF86EA92E00E94A7
:1037F000621288EA99E00E94761568E077E080E03E
:1038000090E00E94EF0660EE77E086EA92E00E9488
:10381000621289E999E00E94761568E077E080E01D
:1038200090E00E94EF066FE170E086EA92E00E946D
:1038300062128BE899E00E94761568E077E080E0FC
:1038400090E00E94EF066FEF7FEF86EA92E00E9421
:1038500062128CE799E00E94761568E077E080E0DC
:1038600090E00E94EF0670E060E086EA92E00E943D
:1038700062128BE699E00E94761568E077E080E0BE
:1038800090E00E94EF0670E060E086EA92E00E941D
:103890006212E090AE02F090AF02C090B002D09001
:1038A000B1020FEF1FEF970150E040E070E060E0E1
:1038B00086EA92E00E94740BA601415051099701DB
:1038C00070E060E086EA92E00E94740B960150E09E
:1038D00040E070E060E086EA92E00E94030BB701EE
:1038E00061507109960150E040E086EA92E00E9442
:1038F000030B82E599E00E94761568E077E080E0AE
:1039000090E00E94EF0687E499E00E94761583EE2E
:1039100098E00E9476158DE598E00E9476158AEE73
:1039200097E00E9476158BE697E00E94761586E177
:1039300097E00E9476158EEA96E00E94761585E85B
:1039400096E00E9476158FEF9FEF9093B9028093D7
:10395000B8029093B7028093B60281E08093BA02D6
:103960008093BB028093BD020E944D14109292027C
:10397000109228030E94F01432E0232E312C0E9472
:1039800022076B017C010E943C069C0191E02115FD
:10399000310509F090E080919602981781F0B70107
:1039A000A601435D5F4F6F4F7F4F40939702509347
:1039B00098026093990270939A02909396024091B4
:1039C0009702509198026091990270919A02411564
:1039D00051056105710529F0C416D506E606F706FE
:1039E000F8F0109297021092980210929902109299
:1039F0009A0280919502981799F090939502909170
:103A00009B02232BB1F591110BC081E080939B02A7
:103A1000C0929C02D0929D02E0929E02F0929F0280
:103A20008091A502882309F464C01092A502813018
:103A300009F079C00E944D1410929202109228034E
:103A40000E94F01480919202813009F436C120F076
:103A50008350833008F486C280E090E0892B09F41B
:103A60008ECF0E949807882309F486CF0E94000019
:103A700083CF9923A9F210929B0280919C0290918E
:103A80009D02A0919E02B0919F02A7019601281B62
:103A9000390B4A0B5B0BDA01C901883B3BE093070A
:103AA000A105B10530F01092A00283E08093A50239
:103AB000B7CF81329340A105B10508F0B1CF809115
:103AC000A002882321F01092A00282E0EFCF81E0D3
:103AD0008093A002D701C6018C559E4FAF4FBF4FB8
:103AE0008093A1029093A202A093A302B093A40298
:103AF00097CF8091A002882309F4A4CF80919502EA
:103B00008111A0CF8091A1029091A202A091A30265
:103B1000B091A402C816D906EA06FB0608F492CFB3
:103B20001092A00287CF9091920291118BCF823098
:103B300009F045C081E0809392021092F2020E9447
:103B400022076093F3027093F4028093F50290933E
:103B5000F6026093F7027093F8028093F902909353
:103B6000FA028FEF93E09093FC028093FB02109295
:103B7000FE021092FD021092FF02109200031092BA
:103B80000103109202031092030310920403109297
:103B90000503109206038091F20280FD0EC081E0C1
:103BA0000E945514C12CD12C760197018601B701D2
:103BB000A60180E00E94A31545CF82E0F1CF8330BB
:103BC00009F04ACF809392020E9422076093070374
:103BD000709308038093090390930A0360930B0387
:103BE00070930C0380930D0390930E0310920F03B8
:103BF00010921003109211031092120310921303EB
:103C00001092140310921503109216030E944D1483
:103C10001092320310923103109233031092340346
:103C200010923503109236032FEF3FEFA901209336
:103C30003703309338034093390350933A0310927B
:103C40003B0310923C0310923D0310923E031092EE
:103C500028031092270370E060E086EA92E00E9459
:103C600062124FEF5FEF5093B9024093B802509346
:103C7000B7024093B60281E08093BA028093BB0200
:103C80003092B3022092B20284E090E09093B502A9
:103C90008093B40284EB91E00E94DD143092B30271
:103CA0002092B202ADE0B0E0B093B502A093B402AE
:103CB00089EB91E00E94DD14C5CE0E9422074B01E2
:103CC0005C018091F7029091F802A091F902B09105
:103CD000FA02A5019401281B390B4A0B5B0BDA0190
:103CE000C9010F97A105B10508F447C08092F702FA
:103CF0009092F802A092F902B092FA020E94020693
:103D00002091FB023091FC028217930720F49093DC
:103D1000FC028093FB022091FD023091FE022817E5
:103D2000390720F49093FE028093FD024091030333
:103D3000509104036091050370910603480F591FC9
:103D4000611D711D409303035093040360930503A9
:103D5000709306038091FF0290910003A0910103EC
:103D6000B09102030196A11DB11D8093FF029093B3
:103D70000003A0930103B09302038091F30290919A
:103D8000F402A091F502B091F602A5019401281B5E
:103D9000390B4A0B5B0BDA01C90188389341A10545
:103DA000B10508F459CE6091FB027091FC0290E0DD
:103DB00080E00E948E272AE038E240EA5BE30E941E
:103DC000452869A77AA78BA79CA76091FD027091EF
:103DD000FE0290E080E00E948E272AE038E240EA6E
:103DE0005BE30E9445286DA37EA38FA398A7C09094
:103DF000FF02D0900003E0900103F0900203C11491
:103E0000D104E104F10409F477C0609103037091D7
:103E1000040380910503909106030E948E272B01D5
:103E20003C01C701B6010E948E279B01AC01C30172
:103E3000B2010E94ED262AE038E240EA5BE30E94EC
:103E400045286B017C010DA11EA12FA138A549A514
:103E50005AA56BA57CA58091F2020E94A3158091C2
:103E6000F2028F5F8093F202843008F449C00E940E
:103E70004D1482E08093920270E060E086EA92E066
:103E80000E9462124FEF5FEF5093B9024093B80265
:103E90005093B7024093B60281E08093BA028093B8
:103EA000BB023092B3022092B20284E090E0909381
:103EB000B5028093B40281EC91E00E94DD1430924F
:103EC000B3022092B202ADE0B0E0B093B502A0938D
:103ED000B40288EC91E00E94DD143092B30220928B
:103EE000B202E6E1F0E0F093B502E093B40284E5BB
:103EF00091E00E94DD14B0CDC12CD12C7601A3CF6E
:103F00002FEF33E03093FC022093FB021092FE026D
:103F10001092FD021092FF02109200031092010312
:103F200010920203109203031092040310920503EF
:103F3000109206038092F3029092F402A092F5028E
:103F4000B092F6028092F7029092F802A092F902E3
:103F5000B092FA0280FD04C081E00E9455147CCD2D
:103F600082E0FBCF0E9422076B017C0180919202CC
:103F7000833009F0A2C080910B0390910C03A091B3
:103F80000D03B0910E03A7019601281B390B4A0BB4
:103F90005B0BDA01C9010A97A105B10588F1C0924E
:103FA0000B03D0920C03E0920D03F0920E030E94DB
:103FB000020640910F03509110036091110370911C
:103FC0001203480F591F611D711D40930F03509339
:103FD0001003609311037093120380911303909167
:103FE0001403A0911503B09116030196A11DB11DF4
:103FF0008093130390931403A0931503B0931603B7
:104000008091070390910803A0910903B0910A03DE
:10401000A7019601281B390B4A0B5B0BDA01C9017A
:1040200086399105A105B10508F416CD2091130339
:104030003091140340911503509116032115310559
:104040004105510559F5109218031092170310926B
:104050000F0310921003109211031092120310928A
:104060001303109214031092150310921603C092BA
:104070000703D0920803E0920903F0920A03C0926A
:104080000B03D0920C03E0920D03F0920E0381E03B
:104090000E94551484E080939202DECC60910F035D
:1040A0007091100380911103909112030E943526A4
:1040B0003093180320931703CACF843009F0E4C06B
:1040C00080910B0390910C03A0910D03B0910E030E
:1040D000A7019601281B390B4A0B5B0BDA01C901BA
:1040E0000A97A105B10588F1C0920B03D0920C0389
:1040F000E0920D03F0920E030E94020640910F031E
:10410000509110036091110370911203480F591FD1
:10411000611D711D40930F035093100360931103B1
:10412000709312038091130390911403A0911503CF
:10413000B09116030196A11DB11D809313039093B6
:104140001403A0931503B093160380910703909175
:104150000803A0910903B0910A03A7019601281B47
:10416000390B4A0B5B0BDA01C90186399105A105B0
:10417000B10508F471CC20911303309114034091E0
:10418000150350911603211531054105510509F01C
:1041900069C010921A0310921903209117033091ED
:1041A00018038091190390911A03B0E0A0E0820FE8
:1041B000931FA11DB11DB595A79597958795AC0146
:1041C000BD0148505109610971090896A11DB11D31
:1041D00077FD57C0411534E053076105710524F0A0
:1041E0004FEF53E060E070E050932E0340932D03B7
:1041F0008115E4E09E07A105B10524F08FEF93E05F
:10420000A0E0B0E09093300380932F034817590744
:1042100030F04150510950932E0340932D0385E017
:1042200080939202C0921B03D0921C03E0921D0364
:10423000F0921E03C0921F03D0922003E09221034C
:10424000F0922203C0922303D0922403E09225032C
:10425000F092260381E0809327030E945514109268
:104260002803FACB60910F03709110038091110322
:10427000909112030E94352630931A03209319035C
:104280008CCF50E040E0B0CF853009F0E5CB809195
:104290001B0390911C03A0911D03B0911E034601C6
:1042A0005701881A990AAA0ABB0AF8E98F16FAE395
:1042B0009F06A104B10408F4E4C00E944D1486E0F6
:1042C0008093920200913103109132030115110580
:1042D00009F4CFC06091370370913803809139039E
:1042E00090913A030E948E2720E030E04AE754E4A0
:1042F0000E94ED262B013C0160913B0370913C0331
:1043000080913D0390913E030E948E2720E030E093
:104310004AE754E40E94ED264B015C0160913303AF
:104320007091340380913503909136030E948E275B
:104330006B017C01B80190E080E00E948E279B0118
:10434000AC01C701B6010E94ED2620E030E04AE74B
:1043500054E40E94ED266B017C0125E0B301A2012B
:10436000CE0149960E94691425E0B501A401CE0151
:104370000D960E94691425E0B701A601CE010196B1
:104380000E94691470E060E086EA92E00E94621286
:104390002FEF3FEF3093B9022093B8023093B7026A
:1043A0002093B60281E08093BA028093BB023092E0
:1043B000B3022092B20244E050E05093B502409321
:1043C000B4028EE891E00E94DD143092B302209294
:1043D000B2028DE090E09093B5028093B40280ED3C
:1043E00091E00E949E15CE0149960E94DD14309204
:1043F000B3022092B202A6E1B0E0B093B502A0935E
:10440000B40283ED91E00E949E15CE010D960E94AC
:10441000DD143092B3022092B202EFE1F0E0F093AB
:10442000B502E093B40286ED91E00E949E15CE01A4
:1044300001960E94DD143092B3022092B20288E20B
:1044400090E09093B5028093B40289ED91E00E94D0
:104450009E15B80186EA92E00E9486153092B3025A
:104460002092B20281E390E09093B5028093B4026F
:104470003ECDC12CD12C76014601570126013701D2
:104480006CCF8091230390912403A0912503B091D8
:104490002603A7019601281B390B4A0B5B0BDA0197
:1044A000C9018A3F9105A105B10508F48CC0C092ED
:1044B0002303D0922403E0922503F0922603009177
:1044C00031031091320370E060E086EA92E00E94CE
:1044D00062124FEF5FEF5093B9024093B8025093CE
:1044E000B7024093B60281E08093BA028093BB0288
:1044F0003092B3022092B20284E090E09093B50231
:104500008093B4028CED91E00E94DD143092B302EE
:104510002092B202ADE0B0E0B093B502A093B40235
:1045200084EE91E00E949E15C501B4010E948E2781
:1045300020E030E04AE754E40E94ED2641E00E948A
:104540005D1662E471E086EA92E00E948214309285
:10455000B3022092B202E6E1F0E0F093B502E093FC
:10456000B40287EE91E00E949E1541E060E070E0A9
:1045700080E791E40E945D1662E471E086EA92E0D1
:104580000E9482143092B3022092B2022FE130E0F6
:104590003093B5022093B40289ED91E00E949E15FC
:1045A000B80186EA92E00E9486153092B30220920A
:1045B000B20288E290E09093B5028093B40280EA60
:1045C00091E00E94DD1480912803882339F10E9434
:1045D00002068C010E94CA06DC01CB01209128034F
:1045E0008090290390902A03A0902B03B0902C0375
:1045F000213009F050C020912D0330912E03021775
:10460000130708F453C088199909AA09BB09813511
:10461000934CA105B10510F01092280380911F035F
:1046200090912003A0912103B0912203A70196014C
:10463000281B390B4A0B5B0BDA01C9018A3F910534
:10464000A105B10508F408CAC0921F03D092200347
:10465000E0922103F09222038091270391E08927C1
:1046600080932703882309F46FC081E00E945514CA
:104670000E94CA066093290370932A0380932B0338
:1046800090932C0380912703882309F460C081E074
:1046900080932803E1C9223009F0B5CF20912F0380
:1046A000309130032017310708F0ADCF88199909F0
:1046B000AA09BB0920913103309132032F5F3F4F8C
:1046C000309332032093310300913303109134036C
:1046D0002091350330913603080F191F2A1F3B1F05
:1046E0000093330310933403209335033093360340
:1046F00000913703109138032091390330913A0328
:1047000080179107A207B30740F480933703909373
:104710003803A0933903B0933A0300913B031091FF
:104720003C0320913D0330913E03081719072A07E7
:104730003B0708F071CF80933B0390933C03A09319
:104740003D03B0933E0368CF0E944D1491CF82E0A9
:104750009FCFEF920F931F93CF93DF93E80134E045
:1047600047FD34E1042E000C550B57FF03C0519553
:1047700041955109E32E022F242FAE010E94C72339
:10478000CE01DF91CF911F910F91EF900895A9E095
:10479000B0E0EDECF3E20C9404266A01F22EB02EA8
:1047A000102FFBE3AF2EA01608F41BE31F5F012FB1
:1047B00027E0AE014F5F5F4F0E942625BC01898133
:1047C000982F9970913009F43FC09BE2E1FC04C03E
:1047D0009E2D9170E0FC3AC05E2D5071E82FE8707C
:1047E00083FF46C084E0911101C083E0EF2DE81BF8
:1047F0008F1508F0E0E0D6018E2F20E2552351F10D
:10480000992329F0D6019C93C60101966C0196016B
:104810002D5F3F4FE2FE24C08EE4D6018C9391E4DD
:1048200011969C93119712968C93D9018E2F90E23A
:1048300081111BC0E20FF32FF11D10828EEF9FEF4D
:104840002996ECE00C9420269DE2C6CF90E2C4CFDE
:104850002D9381508111FCCFCE0ED11CE0E0D0CF42
:104860008EE6D6018C9391E6DBCF9D938150E0CF0D
:10487000482F447082FF3DC084E0911101C083E065
:104880008F1510F4EF2DE81BD6018E2F20E2552353
:1048900009F1992329F0D6019C93C60101966C0178
:1048A00096012D5F3F4FE2FE1BC089E4D6018C9339
:1048B0008EE411968C93119786E412968C93D9010D
:1048C0008E2F90E2882309F4B5CF9D938150FACFC3
:1048D0002D9381508111FCCFCE0ED11CE0E0D9CFB9
:1048E00089E6D6018C938EE611968C93119786E615
:1048F000E4CF9B0177FF02C030E020E0A1E0B0E010
:10490000911102C0B0E0A0E0F9013196AE0FBF1FD7
:104910008B2C912CBB2009F461C05401EFEFAE1A2F
:10492000BE0AAA0DBB1DFA161B0619F014F04F2D76
:104930004A1B511188C0E3FC59C07601A42FB0E294
:10494000A1114FC0C40ED11C992309F45BC040E0F3
:10495000D6011196F60190836D01552309F448C0E4
:10496000012F060F9A81582F507184FF03C0913395
:1049700009F4015010160CF047C0093008F008E0A7
:10498000EEE2FE2E5B01A01AB1088501919481949C
:1049900091082F3F320729F4D601FC92F601319697
:1049A0006F016217730794F1021713077CF5DB019F
:1049B000A21BB30BAA24A394B12CAC0EBD1EAA0D4E
:1049C000BB1D11968C9121503109D60111962815E5
:1049D0003905F4F0F60180836D01DBCFB12CA12CF9
:1049E000A0CFF701B1937F01A150AACF9111B0CF11
:1049F000D601942F50E302C05D9391509111FCCFEA
:104A0000C40ED11C40E0ACCF01E0BACF80E3DBCFD5
:104A10006217730731F4963388F4953311F45523F4
:104A200069F0F6018083FD01842F90E2811108C0B6
:104A3000A40FB11D1C9290E080E002CF81E3F1CF82
:104A400091938150F3CF911183CF8ACF283008F012
:104A500027E03327DA01990F311D87FD9160009619
:104A60006105710539F432602E5F3D9330E32A957C
:104A7000E1F708959F3F30F080387105610509F036
:104A80003C5F3C5F3D93913008F08068911DDF935F
:104A9000CF931F930F93FF92EF92192F987F9695C4
:104AA000E92F96959695E90FFF27EE53FF4F99272B
:104AB0003327EE24FF24A701E7010590089407940B
:104AC00028F4360FE71EF81E491F511D660F771F89
:104AD000881F991F0694A1F70590079428F4E70E04
:104AE000F81E491F561FC11D770F881F991F661F8B
:104AF0000694A1F70590079428F4F80E491F561F55
:104B0000C71FD11D880F991F661F771F0694A1F735
:104B10000590079420F4490F561FC71FD81F990FFF
:104B2000661F771F881F0694A9F784911095177048
:104B300041F0D695C79557954795F794E7941A9500
:104B4000C1F7E8E6F0E0689415901591359165910C
:104B5000959105907FE27395E118F10A430B560B8E
:104B6000C90BD009C0F7E10CF11E431F561FC91F26
:104B7000D01D7EF4703311F48A95E6CFE89401508D
:104B800030F0080F0AF40027021708F4202F2395AD
:104B9000022F7A3328F079E37D932A95E9F710C044
:104BA0007D932A9589F6069497956795379517957D
:104BB0001794E118F10A430B560BC90BD00998F072
:104BC00023957E9173957A3308F070E37C932013DC
:104BD000B8F77E9170617D9330F0839571E37D939A
:104BE00070E32A95E1F71124EF90FF900F911F9148
:104BF000CF91DF91992787FD909508952F923F924D
:104C00004F925F926F927F928F929F92AF92BF92DC
:104C1000CF92DF92EF92FF920F931F93CF93DF9388
:104C2000CDB7DEB7CA1BDB0B0FB6F894DEBF0FBEE5
:104C3000CDBF09942A88398848885F846E847D8432
:104C40008C849B84AA84B984C884DF80EE80FD8034
:104C50000C811B81AA81B981CE0FD11D0FB6F894AA
:104C6000DEBF0FBECDBFED010895A1E21A2EAA1B33
:104C7000BB1BFD010DC0AA1FBB1FEE1FFF1FA2170C
:104C8000B307E407F50720F0A21BB30BE40BF50B09
:104C9000661F771F881F991F1A9469F76095709592
:104CA000809590959B01AC01BD01CF0108950E94B4
:104CB0005F26332312F48A1B9B0B0C947026A29F51
:104CC000B001B39FC001A39F700D811D1124911DE0
:104CD000B29F700D811D1124911D08950E945F26C1
:104CE000B7FF0895821B930B0895EE0FFF1F0590E9
:104CF000F491E02D09945058BB27AA270E949326CF
:104D00000C9406280E94F82738F00E94FF2720F014
:104D100039F49F3F19F426F40C94F5270EF4E0952E
:104D2000E7FB0C94EF27E92F0E94172858F3BA17D6
:104D3000620773078407950720F079F4A6F50C94B1
:104D400039280EF4E0950B2EBA2FA02D0B01B901D6
:104D500090010C01CA01A0011124FF27591B99F0F1
:104D6000593F50F4503E68F11A16F040A22F232FFD
:104D7000342F4427585FF3CF469537952795A7954D
:104D8000F0405395C9F77EF41F16BA0B620B730BF4
:104D9000840BBAF09150A1F0FF0FBB1F661F771F65
:104DA000881FC2F70EC0BA0F621F731F841F48F41A
:104DB000879577956795B795F7959E3F08F0B0CFA3
:104DC0009395880F08F09927EE0F9795879508958A
:104DD0000E94CB2708F481E008950E9401270C94DB
:104DE00006280E94FF2758F00E94F82740F029F477
:104DF0005F3F29F00C94EF2751110C943A280C9442
:104E0000F5270E94172868F39923B1F3552391F3EE
:104E1000951B550BBB27AA2762177307840738F029
:104E20009F5F5F4F220F331F441FAA1FA9F335D086
:104E30000E2E3AF0E0E832D091505040E695001C3A
:104E4000CAF72BD0FE2F29D0660F771F881FBB1FF4
:104E5000261737074807AB07B0E809F0BB0B802DD2
:104E6000BF01FF2793585F4F3AF09E3F510578F0FE
:104E70000C94EF270C943A285F3FE4F3983ED4F368
:104E8000869577956795B795F7959F5FC9F7880FD2
:104E9000911D9695879597F90895E1E0660F771F24
:104EA000881FBB1F621773078407BA0720F0621BB5
:104EB000730B840BBA0BEE1F88F7E09508950E94E0
:104EC0001F2888F09F5798F0B92F9927B751B0F055
:104ED000E1F0660F771F881F991F1AF0BA95C9F77E
:104EE00014C0B13091F00E943928B1E008950C94BB
:104EF0003928672F782F8827B85F39F0B93FCCF36E
:104F0000869577956795B395D9F73EF490958095FA
:104F1000709561957F4F8F4F9F4F0895E89409C01A
:104F200097FB3EF490958095709561957F4F8F4FDC
:104F30009F4F9923A9F0F92F96E9BB279395F695F2
:104F4000879577956795B795F111F8CFFAF4BB0F70
:104F500011F460FF1BC06F5F7F4F8F4F9F4F16C0D4
:104F6000882311F096E911C0772321F09EE8872F5E
:104F7000762F05C0662371F096E8862F70E060E01A
:104F80002AF09A95660F771F881FDAF7880F969593
:104F9000879597F90895990F0008550FAA0BE0E837
:104FA000FEEF16161706E807F907C0F012161306EB
:104FB000E407F50798F0621B730B840B950B39F42B
:104FC0000A2661F0232B242B252B21F408950A2691
:104FD00009F4A140A6958FEF811D811D089597F9D1
:104FE0009F6780E870E060E008959FEF80EC08958F
:104FF00000240A94161617061806090608950024B8
:105000000A9412161306140605060895092E039431
:10501000000C11F4882352F0BB0F40F4BF2B11F4A5
:1050200060FF04C06F5F7F4F8F4F9F4F089557FD04
:105030009058440F551F59F05F3F71F04795880F06
:1050400097FB991F61F09F3F79F08795089512169D
:1050500013061406551FF2CF4695F1DF08C0161649
:1050600017061806991FF1CF8695710561050894FA
:105070000895E894BB2766277727CB0197F9089511
:105080000E94CB2708F48FEF08950E9458280C94B3
:1050900006280E94F82738F00E94FF2720F0952369
:1050A00011F00C94EF270C94F52711240C943A2856
:1050B0000E94172870F3959FC1F3950F50E0551F7C
:1050C000629FF001729FBB27F00DB11D639FAA275D
:1050D000F00DB11DAA1F649F6627B00DA11D661FAC
:1050E000829F2227B00DA11D621F739FB00DA11DCD
:1050F000621F839FA00D611D221F749F3327A00D87
:10510000611D231F849F600D211D822F762F6A2F22
:1051100011249F5750409AF0F1F088234AF0EE0F87
:10512000FF1FBB1F661F771F881F91505040A9F7B4
:105130009E3F510580F00C94EF270C943A285F3F76
:10514000E4F3983ED4F3869577956795B795F795F0
:10515000E7959F5FC1F7FE2B880F911D9695879568
:1051600097F908950E94CB27880B990B089581E049
:0C51700090E0F8940C94BC28F894FFCF59
:10517C0000000000CE072E075B0736088C076A0775
:10518C007E0700000000B9102E0714141314080A2F
:10519C008D0D5B0DF20C710CB20C6613730E0F0EB1
:1051AC00EB09030B740BE50B6212EA118B113F1721
:1051BC0089090D0A004C6174656E63790032676C65
:1051CC00617373007461703D6D656E75003274614E
:1051DC00703D63616C00686F6C6433733D540063A5
:1051EC00616C205242203573007834205673746100
:1051FC0074006C617420313573004C4544206D7320
:10520C000043414C002F004D6E004D78004176005C
:10521C007461703D657363006E616E00696E66004B
:10522C006F7666005761697400414443207265666D
:10523C000043414C204F4B004C4544206F666600A8
:10524C006D6E006D78006176006E20004C4154202C
:0A525C0072756E00742000542000EB
:00000001FF
