:100000000C9471030C9499030C9499030C94990328
:100010000C9499030C9499030C9499030C949903F0
:100020000C9499030C9499030C9499030C949903E0
:100030000C9499030C9499030C9499030C949903D0
:100040000C9475140C9499030C9499030C949903D3
:100050000C9499030C9499030C9499030C949903B0
:100060000C9499030C94990300407A10F35A00A061
:10007000724E18090010A5D4E80000E87648170071
:1000800000E40B54020000CA9A3B000000E1F505B1
:10009000000080969800000040420F000000A086FB
:1000A00001000000102700000000E803000000002D
:1000B0006400000000000A000000000001000000D1
:1000C00000002C76D888DC674F0823DFC1DFAE59EB
:1000D000E1B1B796E5E3E453C63AE651997696E87E
:1000E000E6C28426EB898C9B62ED407C6FFCEFBC02
:1000F0009C9F40F2BAA56FA5F490055A2AF75C932D
:100100006B6CF9676DC11BFCE0E40D47FEF520E662
:10011000B500D0ED902E0300943577050080841E45
:10012000080000204E0A000000C80C333333330FA0
:10013000986E12831141EF8D2114893BE65516CF3D
:10014000FEE6DB18D1844B381BF77C1D901DA4BB49
:10015000E424203284725E228100C9F124ECA1E5FE
:100160003D2700000000003E5B4F5B3E3E6B4F6B47
:100170003E1C3E7C3E1C183C7E3C181C577D571C88
:100180001C5E7F5E1C00183C1800FFE7C3E7FF0001
:1001900018241800FFE7DBE7FF30483A060E26294F
:1001A000792926407F050507407F05253F5A3CE712
:1001B0003C5A7F3E1C1C08081C1C3E7F14227F22D8
:1001C000145F5F005F5F06097F017F006689956AA3
:1001D000606060606094A2FFA29408047E0408102E
:1001E000207E201008082A1C08081C2A08081E1057
:1001F0001010100C1E0C1E0C30383E3830060E3E0F
:100200000E06000000000000005F0000000700076D
:1002100000147F147F14242A7F2A12231308646297
:1002200036495620500008070300001C22410000F8
:1002300041221C002A1C7F1C2A08083E0808008056
:1002400070300008080808080000606000201008EE
:1002500004023E5149453E00427F400072494949EF
:10026000462141494D331814127F10274545453921
:100270003C4A494931412111090736494949364625
:100280004949291E00001400000040340000000805
:1002900014224114141414140041221408020159A8
:1002A00009063E415D594E7C1211127C7F49494935
:1002B000363E414141227F4141413E7F49494941CA
:1002C0007F090909013E414151737F0808087F00F9
:1002D000417F41002040413F017F081422417F407F
:1002E0004040407F021C027F7F0408107F3E414156
:1002F000413E7F090909063E4151215E7F091929C6
:1003000046264949493203017F01033F4040403FAF
:100310001F2040201F3F4038403F631408146303F0
:10032000047804036159494D43007F41414102046F
:10033000081020004141417F040201020440404076
:100340004040000307080020545478407F2844446C
:10035000383844444428384444287F385454541886
:1003600000087E090218A4A49C787F080404780081
:10037000447D40002040403D007F10284400004163
:100380007F40007C047804787C0804047838444476
:100390004438FC1824241818242418FC7C0804046D
:1003A00008485454542404043F44243C4040207CD6
:1003B0001C2040201C3C4030403C44281028444C29
:1003C0009090907C4464544C4400083641000000F6
:1003D000770000004136080002010204023C262397
:1003E000263C1EA1A161123A4040207A385454554F
:1003F0005921555579412254547842215554784019
:1004000020545579400C1E527212395555555939A0
:100410005454545939555454580000457C410002F5
:10042000457D420001457C407D1211127DF028255A
:1004300028F07C545545002054547C547C0A097F94
:100440004932494949323A4444443A324A484830A8
:100450003A4141217A3A42402078009DA0A07D3D5A
:100460004242423D3D4040403D3C24FF2424487EE2
:100470004943662B2FFC2F2BFF0929F620C0887ECD
:10048000090320545479410000447D413048484AD2
:1004900032384040227A007A0A0A727D0D19317D85
:1004A0002629292F28262929292630484D40203859
:1004B0000808080808080808382F10C8ACBA2F1018
:1004C0002834FA00007B000008142A142222142A7F
:1004D00014085500550055AA55AA55AAFF55FF55B1
:1004E000FF000000FF00101010FF00141414FF00A4
:1004F0001010FF00FF1010F010F0141414FC001482
:1005000014F700FF0000FF00FF1414F404FC14149F
:1005100017101F10101F101F1414141F001010109C
:10052000F0000000001F101010101F10101010F02D
:1005300010000000FF101010101010101010FF100D
:10054000000000FF140000FF00FF00001F10170054
:1005500000FC04F414141710171414F404F400002D
:10056000FF00F714141414141414F700F7141414DF
:10057000171410101F101F141414F4141010F0107E
:10058000F000001F101F0000001F14000000FC14EA
:100590000000F010F01010FF10FF141414FF1410DE
:1005A00010101F00000000F010FFFFFFFFFFF0F031
:1005B000F0F0F0FFFFFF0000000000FFFF0F0F0F43
:1005C0000F0F3844443844FC4A4A4A347E0202063B
:1005D00006027E027E0263554941633844443C046E
:1005E000407E201E2006027E020299A5E7A5991CE6
:1005F0002A492A1C4C7201724C304A4D4D30304809
:10060000784830BC625A463D3E494949007E010166
:10061000017E2A2A2A2A2A44445F444440514A44FB
:100620004040444A51400000FF0103E080FF0000C9
:1006300008086B6B083612362436060F090F0600C1
:100640000018180000001010003040FF0101001FCA
:1006500001011E00191D1712003C3C3C3C0000002B
:1006600000000901809611800A3A81550A36010876
:100670002A04000000F02B040000014021800A132E
:10068000800A29800A00000000240027002A0000B8
:10069000000000250028002B000000000023002699
:1006A00000290004040404040404040202020202F7
:1006B0000203030303030301020408102040800126
:1006C00002040810200102040810200000000800A5
:1006D0000201000003040700000000000000000009
:1006E0000D1D11241FBECFEFD8E0DEBFCDBF11E03E
:1006F000A0E0B1E0E8EBF6E402C005900D92A83D61
:10070000B107D9F722E0A8EDB1E001C01D92A039F0
:10071000B207E1F713E0C1E7D3E004C02197FE017F
:100720000E941321C037D107C9F70E94BF140C944F
:100730005A230C94000081E480937C0080917A001D
:10074000806480937A0080917A0086FDFCCF80914E
:100750007800909179000895833081F028F48130F9
:1007600099F08230A9F008958730A9F08830C9F057
:100770008430B1F4809180008F7D03C0809180002F
:100780008F7780938000089584B58F7784BD089516
:1007900084B58F7DFBCF8091B0008F778093B000C0
:1007A00008958091B0008F7DF9CFCF93DF93EDEC6A
:1007B000F6E08491E9EBF6E0D491E5EAF6E0C49145
:1007C000CC23A1F081110E94AC03EC2FF0E0EE0FDE
:1007D000FF1FE756F94FA591B491EC91ED2381E00D
:1007E00090E009F480E0DF91CF91089580E090E0FF
:1007F000FACF1F93CF93DF93282F30E0F901E55311
:10080000F94F8491F901E954F94FD491F901ED556B
:10081000F94FC491CC23A9F0162F81110E94AC038B
:10082000EC2FF0E0EE0FFF1FE157F94FA591B491C7
:100830008FB7F894EC91111108C0D095DE23DC93AA
:100840008FBFDF91CF911F910895DE2BF8CFCF930B
:10085000DF9390E0FC01E954F94F24918D55994FB5
:10086000FC0184918823C9F090E0880F991FFC0156
:10087000EB57F94FA591B491FC01E157F94FC591A0
:10088000D49161110DC09FB7F8948C91209582236B
:100890008C938881282328839FBFDF91CF9108956F
:1008A000623051F49FB7F8943C91822F8095832356
:1008B0008C93E8812E2BEFCF8FB7F894EC912E2BF1
:1008C0002C938FBFEACF3FB7F8948091DF019091CE
:1008D000E001A091E101B091E20126B5A89B05C01D
:1008E0002F3F19F00196A11DB11D3FBFBA2FA92FAF
:1008F000982F8827BC01CD01620F711D811D911DAC
:1009000042E0660F771F881F991F4A95D1F7089517
:100910008F929F92AF92BF92CF92DF92EF92FF920F
:100920006B017C010E9463044B015C01C114D10482
:10093000E104F104B9F00E946304681979098A0995
:100940009B09683E73408105910580F321E0C21A3E
:10095000D108E108F10888EE880E83E0981EA11CFA
:10096000B11CE4CFFF90EF90DF90CF90BF90AF909D
:100970009F908F9008952FB7F8946091DB0170914C
:10098000DC018091DD019091DE012FBF0895AF92CF
:10099000BF92CF92DF92EF92FF920F931F93CF936C
:1009A000DF936C017B018B01040F151FEB015E01CE
:1009B000AE18BF08C017D10759F06991D601ED9163
:1009C000FC910190F081E02DC6010995892B79F702
:1009D000C501DF91CF911F910F91FF90EF90DF90B4
:1009E000CF90BF90AF900895FC01A5A1B6A18C91C6
:1009F00092A589238C93A5A1B6A18C9191A5892B51
:100A00008C930895DC019396ED91FC9194979081DD
:100A100098968C91892380830895DC019396ED91BB
:100A2000FC919497908197968C91892B808308955F
:100A3000DC019196ED91FC919297908196968C9124
:100A4000892380830895DC019196ED91FC91929722
:100A5000908195968C91892B80830895CF92DF9217
:100A6000EF92FF921F93CF93DF93EC016A017B011A
:100A70008DA9811123C08F2D9927AA27BB278EBD51
:100A80000DB407FEFDCFC701AA27BB278EBD0DB44D
:100A900007FEFDCFBB27AF2D9E2D8D2D8EBD0DB436
:100AA00007FEFDCFCEBC0DB407FEFDCFDF91CF9189
:100AB0001F91FF90EF90DF90CF9008958130B1F4B7
:100AC00010E2CE01F7FE0FC00E942305CE010E9466
:100AD0000D05CE010E940205CC0CDD1CEE1CFF1C96
:100AE000115079F7E3CF0E941805F0CFEF8DF8A1F0
:100AF0008F2D9927AA27BB278083CE010E94F4045B
:100B0000EF8DF8A1C701AA27BB278083CE010E94E1
:100B1000F404EF8DF8A1BB27AF2D9E2D8D2D808382
:100B2000CE010E94F404EF8DF8A1C082CE01DF91C6
:100B3000CF911F91FF90EF90DF90CF900C94F40431
:100B4000FF920F931F93CF93DF93EC018B018DA93D
:100B500081110EC01EBD0DB407FEFDCF0EBD0DB43C
:100B600007FEFDCFDF91CF911F910F91FF90089568
:100B70008130B1F490E1F92ECE0117FF0EC00E9432
:100B80002305CE010E940D05CE010E940205000F33
:100B9000111FFA94F110F0CFE5CF0E941805F1CFA4
:100BA000EF8DF8A11083CE010E94F404EF8DF8A11F
:100BB0000083CE01DF91CF911F910F91FF900C9494
:100BC000F4040F931F93CF93DF93EC01162F8DA99D
:100BD000811109C06EBD0DB407FEFDCFDF91CF912D
:100BE0001F910F910895813099F408E0CE0117FF0D
:100BF0000CC00E942305CE010E940D05110FCE01ED
:100C00000E940205015091F7E9CF0E941805F3CF29
:100C1000EF8DF8A16083CE01DF91CF911F910F91ED
:100C20000C94F404CF93DF93EC01ED8DFE8D808165
:100C30009CA989238083CE010E94E105ED8DFE8D64
:100C400080819BA9892B8083DF91CF9108958F921A
:100C50009F92AF92BF92CF92DF92EF92FF920F934B
:100C60001F93CF93DF93EC0189AD9AAD680F791F85
:100C70008BAD9CAD480F591F21503109260F371FEE
:100C80004901B12CA12CCB01B0E0A0E0DC019927F7
:100C90008827882A992AAA2ABB2A680181E0C81ACB
:100CA000D108C40ED51EF12CE12C70E060E0BA0131
:100CB00055274427C42AD52AE62AF72A6AE2CE0114
:100CC0000E941206B501A401CE010E942E056BE21E
:100CD000CE010E941206B701A601CE010E942E0588
:100CE0006CE2CE01DF91CF911F910F91FF90EF90B9
:100CF000DF90CF90BF90AF909F908F900C94120692
:100D0000FC0185A9811104C091A182A19CBD8DBD6A
:100D100008951F93CF93DF93EC01162FE881F9819B
:100D20000284F385E02D0995112371F06DADCE019C
:100D30000E941206E881F9810688F789E02DCE012C
:100D4000DF91CF911F9109946EADF1CFAF92BF9219
:100D5000CF92DF92EF92FF920F931F93CF93DF9387
:100D6000EC0177FD38C088859985681779079CF56F
:100D700057FD31C08A859B854817590764F569017D
:100D80007A015B01E881F9810284F385E02DCE01CF
:100D90000995E881F98102A4F3A5E02D01E010E0B6
:100DA00021E030E0A701B501CE010995B601CE01E1
:100DB0000E94A005E881F9810688F789E02DCE011F
:100DC000DF91CF911F910F91FF90EF90DF90CF9027
:100DD000BF90AF900994DF91CF911F910F91FF9039
:100DE000EF90DF90CF90BF90AF9008958F929F9239
:100DF000AF92BF92CF92DF92EF92FF920F931F9329
:100E0000CF93DF93EC0149015701E881F98102A4F6
:100E1000F3A5E02D09959401D8010E94F5206B01FE
:100E20007C01C114D104E104F10409F47DC08DA951
:100E3000811115C081E0C81AD108E108F1088FEFCF
:100E4000C816D806E806F80609F46EC0BEBC0DB494
:100E500007FEFDCFAEBC0DB407FEFDCFEBCF81305A
:100E600099F581E0C81AD108E108F1088FEFC8169A
:100E7000D806E806F80609F457C00B2D18E0CE0195
:100E800007FF1CC00E942305CE010E940D05CE0164
:100E90000E940205000F115091F70A2D18E0CE01B3
:100EA00007FF0FC00E942305CE010E940D05CE0151
:100EB0000E940205000F115091F7D3CF0E94180530
:100EC000E3CF0E941805F0CFBA1016C0CC0CDD1C81
:100ED000EE1CFF1CEF8DF8A1B08281E0C81AD1088A
:100EE000E108F1088FEFC816D806E806F806E1F029
:100EF000CE010E94F404F1CF81E0C81AD108E108C4
:100F0000F1088FEFC816D806E806F80669F0EF8DED
:100F1000F8A1B082CE010E94F404EF8DF8A1A08266
:100F2000CE010E94F404E8CFDF91CF911F910F9181
:100F3000FF90EF90DF90CF90BF90AF909F908F90F9
:100F400008958F929F92AF92BF92CF92DF92EF92CD
:100F5000FF920F931F93CF93DF935C014B016A01C4
:100F6000E90177FD52C0DC0118968D919C916817BC
:100F700079070CF04AC0209709F447C037FF07C033
:100F8000C9010196C80ED91ED195C195D109F501A7
:100F900082859385C816D906C4F5A6014C0F5D1F3E
:100FA0009A012150310937FD30C0D7FE03C0EA0154
:100FB000D12CC12C281739071CF0EC01CC19DD0904
:100FC000D501ED91FC910284F385E02DC5010995D1
:100FD00078018E0121E030E0A601B401C5010E9434
:100FE000F606D501ED91FC910688F789E02DC50143
:100FF000DF91CF911F910F91FF90EF90DF90CF90F5
:10100000BF90AF909F908F900994DF91CF911F91E7
:101010000F91FF90EF90DF90CF90BF90AF909F9097
:101020008F9008958F929F92AF92BF92CF92DF924E
:10103000EF92FF920F931F93CF93DF935C016B01AD
:101040004A01E90157FD52C0DC011A968D919C912D
:10105000481759070CF04AC0209709F447C037FFDA
:1010600007C0C9010196C80ED91ED195C195D109F5
:10107000F50180859185C816D906C4F5A6014C0FE7
:101080005D1F9A012150310937FD30C0D7FE03C0E2
:10109000EA01D12CC12C281739071CF0EC01CC191E
:1010A000DD09D501ED91FC910284F385E02DC501A8
:1010B0000995780101E010E09E01A401B601C50187
:1010C0000E94F606D501ED91FC910688F789E02D86
:1010D000C501DF91CF911F910F91FF90EF90DF90AD
:1010E000CF90BF90AF909F908F900994DF91CF9158
:1010F0001F910F91FF90EF90DF90CF90BF90AF9036
:101100009F908F9008958F929F92AF92BF92CF92AF
:10111000DF92EF92FF920F931F93CF93DF934C01D7
:101120006B015A01E901209709F46CC00115110502
:1011300009F468C037FF07C0C9010196C80ED91E5F
:10114000D195C195D109F401A085B185CA16DB06F8
:101150000CF058C017FF07C0C8010196A80EB91EB1
:10116000119501951109F40182859385A816B90698
:101170000CF048C0F601EC0FFD1FAF0141505109C2
:1011800057FD40C0B501600F711F9B01215031090F
:1011900037FD38C0D7FE03C0EF01D12CC12CB7FEFC
:1011A00003C08B01B12CA12C4A175B071CF0ED0189
:1011B000CC19DD09281739071CF08C010A191B0905
:1011C000D401ED91FC910284F385E02DC4010995D1
:1011D0009E01A501B601C4010E94F606D401ED915D
:1011E000FC910688F789E02DC401DF91CF911F9112
:1011F0000F91FF90EF90DF90CF90BF90AF909F90B6
:101200008F900994DF91CF911F910F91FF90EF90F4
:10121000DF90CF90BF90AF909F908F900895EF9206
:10122000FF920F931F93CF93DF9377FD32C0DC01C2
:101230001896ED91FC916E177F075CF5211531052D
:1012400041F137FF07C0F90131964E0F5F1F31950D
:1012500021953109DC011A96ED91FC914E175F073B
:10126000C4F4EA01C20FD31FDE011197B7FD11C00C
:1012700057FF03C09E0150E040E0AE17BF071CF0CF
:101280009F01241B350B7801890121E030E00E9489
:10129000F606DF91CF911F910F91FF90EF90089587
:1012A000EF92FF920F931F93CF93DF9357FD31C0BF
:1012B000DC011A96ED91FC914E175F0754F521154C
:1012C000310539F137FF07C0F90131966E0F7F1FE5
:1012D000319521953109DC011896ED91FC916E173D
:1012E0007F07BCF4EB01C20FD31FDE011197B7FDDE
:1012F00010C077FF03C09E0170E060E0AE17BF072B
:101300001CF09F01261B370B780101E010E00E94C2
:10131000F606DF91CF911F910F91FF90EF90089506
:101320008F929F92AF92BF92CF92DF92EF92FF92F5
:101330000F931F93CF93DF9347012115310509F4D4
:101340004BC00115110509F447C037FF07C0F9016B
:1013500031966E0F7F1F319521953109DC0118966A
:10136000AD90BC906A157B05BCF517FF07C0F8016E
:1013700031964E0F5F1F119501951109DC011A96E8
:10138000ED91FC914E175F073CF56B01C20ED31E29
:10139000E6012197D7FD20C07A01E00EF11ED701AA
:1013A0001197B7FD19C077FF03C0960170E060E0A8
:1013B00057FF03C0870150E040E0CA15DB051CF071
:1013C0009501261B370BAE17BF071CF08F01041BBE
:1013D000150B74010E94F606DF91CF911F910F91BA
:1013E000FF90EF90DF90CF90BF90AF909F908F9045
:1013F0000895EF92FF920F931F93CF93DF93EC0129
:1014000077FD22C08885998568177907ECF457FD28
:101410001BC08A859B8548175907B4F47901E88178
:10142000F98102A4F3A5E02D01E010E021E030E015
:10143000CE010995B701CE01DF91CF911F910F9198
:10144000FF90EF900C94A005DF91CF911F910F9129
:10145000FF90EF900895CF93DF93EC010E948006F8
:101460008FA987FD06C0EB8DFC8D80819AA9892309
:101470008083DF91CF91089508950F931F93CF93A9
:10148000DF93EC018B010E9480068FA987FD06C0C7
:10149000EB8DFC8D80819AA989238083ED8DFE8D53
:1014A00080819CA98923808366E3CE010E94E105A7
:1014B000ED8DFE8D80819BA9892B80838DA9F801FC
:1014C000823091F06081CE010E94E1058FA987FDF5
:1014D00006C0EB8DFC8D808199A9892B8083DF91DB
:1014E000CF911F910F91089588A9882359F36081A6
:1014F0007181CE010E94A005E9CFCF93DF931F92A7
:10150000CDB7DEB7FC0119826370668BDC01AD5B81
:10151000BF4F2C9130E011968C9190E0623031F009
:101520006330C9F0613081F040EC498332AF21AFC4
:1015300094AF83AFBE016F5F7F4FCF010E943D0A22
:101540000F90DF91CF91089540EA498334AF23AFE4
:1015500092AF81AFEFCF40E6F8CF0F931F93CF93B9
:10156000DF931F92CDB7DEB7FC0119826370668BE3
:10157000DC01A85BBF4F2D913C91119712968D9184
:101580009C916230D1F1633009F440C08F010C5B53
:101590001F4F6130F9F040EC4983AF014D5B5F4F65
:1015A000DA014C9150E052AF41AFD8014C9150E07C
:1015B00054AF43AF3187208793878287BE016F5F27
:1015C0007F4FCF010E943D0A0F90DF91CF911F9175
:1015D0000F91089540EA4983D8014C9150E052AFF1
:1015E00041AFDF01AA5BBF4F4C9150E054AF43AF16
:1015F0003387228791878087E1CFDF01AA5BBF4FC6
:101600004C9150E052AF41AF1196D0CF40E64983A4
:10161000DF01A95BBF4F4C9150E052AF41AF14972F
:10162000E3CFFC0187A987FD06C0A38DB48D9C91F3
:1016300081A9892B8C9308950895FC016370668BB2
:101640008481958126813781613039F0633029F0BA
:1016500091878087338722870895318720879387F2
:10166000828708952F923F924F925F926F927F925E
:101670008F929F92AF92BF92CF92DF92EF92FF92A2
:101680000F931F93CF93DF93CDB7DEB76A970FB653
:10169000F894DEBF0FBECDBF9A8F898F7A8369839E
:1016A0004A01D22E18870F833701BC2CDC015996D2
:1016B0002D913C915A972115310509F015C11896C5
:1016C0008D919C911997681779070CF0D7C11A96DC
:1016D0008D919C91481759070CF0D0C14C2C512C7E
:1016E000B6E0CB9E600D711D11247C876B871616AA
:1016F00017060CF0C3C1EA2DF0E0FA87E98793E002
:10170000EE0FFF1F9A95E1F7F88BEF87CF01840F5B
:10171000951F181619060CF0B1C1A98DBA8D5896EF
:101720008C91811104C0BFEABD1508F4D394A98D32
:10173000BA8DED91FC9111970284F385E02DCD01D6
:101740000995B5E0DB9EC0011124E981FA81FC8393
:10175000EB83312C212C9C012E593E4F388F2F8B3F
:101760004A2D50E05E8B4D8BEF89F88DE20DF31D15
:1017700044919E828D82D12CC12C69817A81620D27
:10178000731D7A8B698B842F90E09C8B8B8BE98DFA
:10179000FA8DA081B18140FF82C0F1E0BF126FC01D
:1017A000AF126DC01C96ED91FC912F813885A4017C
:1017B0004C0D5D1D69897A89898D9A8D0995EB8912
:1017C000FC89F595E7954E2F5FEFC51AD50A6D8117
:1017D0007E818D899E89680F791F7E836D8398E055
:1017E000C916D10481F6AFEF2A1A3A0AEB81FC81BF
:1017F000E40DF51DFC83EB83F5E02F16310409F0B1
:10180000B3CF2F81388526153705B9F0A98DBA8D4C
:10181000ED91FC91B1E0BB1257C0AB1255C069818C
:101820007A816B5F7F4F0088F189E02D830128E08A
:1018300030E0A401898D9A8D0995A98DBA8DED911D
:10184000FC9111970688F789E02DCD016A960FB6B5
:10185000F894DEBF0FBECDBFDF91CF911F910F91E6
:10186000FF90EF90DF90CF90BF90AF909F908F90C0
:101870007F906F905F904F903F902F9009941E96AD
:10188000ED91FC91EF80F88409851A8592014D81D4
:101890005E816B817C81898D9A8D099590CF2F8196
:1018A00038852615370509F48ACF31E0B31207C011
:1018B000A31205C01C96ED91FC91930178CF1E9662
:1018C000ED91FC917301E0CF6B857C8564197509FE
:1018D0000684F785E02D73010F8518899201A40114
:1018E000898D9A8D0995A9CFF901349694913297F3
:1018F00045915491D91AB7E0DB9E400D511D11243A
:10190000F901259134913C8B2B8BFA012590349071
:10191000FA013296749031963491398B32966490F4
:101920003196449041E04C1518F04A1508F07FC0FC
:10193000662D062C000C770B7C836B83842D042C86
:10194000000C990B9E838D83A98DBA8DED91FC912E
:1019500011970284F385E02DCD010995512CD12CEE
:10196000C12CEA2DF0E0FA87E9872B2D30E03C8787
:101970002B87A401440D511D47FC5A95588F4F8B5E
:1019800069817A81660D711D67FC7A957E876D8706
:101990007989C71608F051CF2C2D30E04D815E813A
:1019A000420F531FA985BA854A9FC0014B9F900DD6
:1019B0005A9F900D1124FC01E80DF91DF88BEF875B
:1019C000852D612C4F89588D420F531F5E8B4D8B97
:1019D000671408F050C044244394480E877041F4C3
:1019E000C1010196EB89FC89E20DF31DD4901C0125
:1019F000D7FE19C0A98DBA8DED91FC91662D70E0CE
:101A0000B1E0BB1219C0AB1217C02D853E85620F25
:101A1000731F0484F585E02D2F8138854D895E89FB
:101A2000898D9A8D0995DD0C6394842DD1CF1E820A
:101A30001D821C821B8288CF4B815C81640F751FC5
:101A4000AB85BC856A9FC0016B9F900D7A9F900DFE
:101A5000112469817A81680F791F0684F785E02D4A
:101A6000EF80F88409851A859D014F855889898DF5
:101A70009A8D0995D8CF570CC3948ACF6A960FB622
:101A8000F894DEBF0FBECDBFDF91CF911F910F91B4
:101A9000FF90EF90DF90CF90BF90AF909F908F908E
:101AA0007F906F905F904F903F902F9008958F920E
:101AB0009F92AF92CF92EF92FF920F931F93CF938B
:101AC000DF93EC01262F898D9A8D009709F051C084
:101AD0006A30D1F41D861C868D8948E0849F900170
:101AE00011248E859F85820F931F9F878E8781E0AB
:101AF00090E0DF91CF911F910F91FF90EF90CF90E9
:101B0000AF909F908F9008956D3089F3CC88AD8809
:101B10008F898823C1F08C859D8536E0C39E800D1A
:101B2000911D1124488559854817590764F44E853D
:101B30005F851D861C8638E0A39EC0011124840F9A
:101B4000951F9F878E87EA88FB88088919894E85AB
:101B50005F856C857D85CE010E94320B2C898C853A
:101B60009D8546E0249F800D911D11249D878C87C3
:101B7000BECF6A3069F41D861C86FC013896E4915C
:101B80002D898E859F85E29F800D911D1124ADCFFB
:101B90006D3009F4ACCFFC0134963491631708F42E
:101BA000A6CF3296E491E61708F4A1CFFC01329655
:101BB00085909490462F431B342F47E0349F800C30
:101BC000911C1124F401329634913196E49133231F
:101BD000A9F1EE2399F1CC88F4013596E491AD8812
:101BE0004F89442301F10E2E000CFF0BE30FF11D72
:101BF000CE9EA001CF9E500D11246C857D85460F91
:101C0000571F68857985641775076CF44E855F8565
:101C10001D861C86FC013896E491AE9E400D511D38
:101C200011245F874E87EA88FB88088919894E85C9
:101C30005F856C857D85CE010E94320BF401349660
:101C4000E4912C898C859D85E29F800D911D112446
:101C50008DCF6F927F928F929F92AF92BF92CF92D1
:101C6000DF92EF92FF920F931F93CF93DF93EC01DC
:101C70006B015A0139014801E881F9810284F38539
:101C8000E02D0995E881F9810288F389E02D87012B
:101C90009301A501B601CE010995A501480D591D75
:101CA00041505109E881F9810288F389E02D9301BF
:101CB000B601CE010995E881F9810088F189E02D0E
:101CC0009401A501B601CE010995C60CD71CB60139
:101CD00061507109E881F9810088F189E02D940152
:101CE000A501CE010995E881F9810688F789E02DE3
:101CF000CE01DF91CF911F910F91FF90EF90DF9078
:101D0000CF90BF90AF909F908F907F906F900994ED
:101D10006F927F928F929F92AF92BF92CF92DF92FB
:101D2000EF92FF920F931F93CF93DF935C01EB0130
:101D30006A01490138018701DC01ED91FC916217CC
:101D4000730719F5641675062CF0962D872D3A0148
:101D5000C92ED82E9601261937092F5F3F4F048CC4
:101D6000F58DE02DA301BE01C5010995DF91CF914D
:101D70001F910F91FF90EF90DF90CF90BF90AF90A9
:101D80009F908F907F906F9008954615570591F41E
:101D90002617370724F0892D4B01C22FD82F9E011B
:101DA000281939092F5F3F4F068CF78DE02DA601CA
:101DB000B401DACF0284F385E02D0995D501ED91C8
:101DC000FC910488F589E02D83019401A601BE01F0
:101DD000C5010995D501ED91FC910688F789E02DA3
:101DE000C501DF91CF911F910F91FF90EF90DF9090
:101DF000CF90BF90AF909F908F907F906F900994FD
:101E0000EF92FF920F931F93DC011A960D911C9194
:101E10001B9718962D913C911997ED91FC9100A07C
:101E2000F1A1E02D7B0150E040E070E060E0099519
:101E30001F910F91FF90EF9008954F925F926F92D4
:101E40007F928F929F92AF92BF92CF92DF92EF924A
:101E5000FF920F931F93CF93DF936C012B015A01D5
:101E600039014801DC01ED91FC910284F385E02DFC
:101E70000995E201640C751CD601ED91FC91C61523
:101E8000D7055CF40088F189E02D87019401A50154
:101E9000BE01C60109952196EFCF0688F789E02D8E
:101EA000C601DF91CF911F910F91FF90EF90DF90CE
:101EB000CF90BF90AF909F908F907F906F905F90EA
:101EC0004F9009948F929F92AF92BF92CF92DF92E0
:101ED000EF92FF920F931F93CF93DF93EC015B017F
:101EE0004A016901E881F9810284F385E02D0995B1
:101EF00095012C0D3D1D21503109E881F98104889F
:101F0000F589E02D78018401A401B501CE01099580
:101F1000E881F9810688F789E02DCE01DF91CF9124
:101F20001F910F91FF90EF90DF90CF90BF90AF90F7
:101F30009F908F9009948F929F92AF92BF92CF9271
:101F4000DF92EF92FF920F931F93CF93DF93EC01F9
:101F50005B014A0169017801E881F9810284F38516
:101F6000E02D0995C80CD91C860101501109E881A2
:101F7000F9810488F589E02D9501A401B501CE0110
:101F80000995E881F9810688F789E02DCE01DF9176
:101F9000CF911F910F91FF90EF90DF90CF90BF9066
:101FA000AF909F908F9009940895EF92FF920F93B6
:101FB0001F93DC01ED91FC9100A0F1A1E02D0995AA
:101FC0001F910F91FF90EF9008950F931F93DC01E5
:101FD000ED91FC91068CF78DE02D09951F910F91E5
:101FE00008950F931F93DC01ED91FC91048CF58D06
:101FF000E02D09951F910F910895DC01ED91FC9161
:102000000084F185E02D09942F923F924F925F92C8
:102010006F927F928F929F92AF92BF92CF92DF92F8
:10202000EF92FF920F931F93CF93DF9300D000D0D6
:1020300000D0CDB7DEB73C016A013E832D83FC8220
:10204000EB825801A41AB50AB7FE03C0B194A1945B
:10205000B1088D809E80861A970A97FE03C09194DE
:10206000819491088A149B045CF0902F812F0D813C
:102070001E819D838E839C2D8D2D6B01692F782F62
:102080000C151D055CF09D818E817E836D83692F0B
:10209000782F902F812F8601C92ED82E1601201A55
:1020A000310A2B012D813E81421A530A57FE03C08B
:1020B000519441945108710137FE03C03FEFE31A78
:1020C000F30AF594E7948D819E81861797075CF556
:1020D000A1E0B0E0BA83A983C016D1064CF1D301C8
:1020E000ED91FC910484F585E02D2B813C81A801C4
:1020F0006D817E818A149B041CF04D815E81B80144
:10210000C3010995E418F508F7FE0AC02D813E8148
:1021100089819A81280F391F3E832D83E20CF31C9D
:102120000F5F1F4FD9CF2FEF3FEF3A832983D4CFD3
:1021300026960FB6F894DEBF0FBECDBFDF91CF91CC
:102140001F910F91FF90EF90DF90CF90BF90AF90D5
:102150009F908F907F906F905F904F903F902F90C7
:102160000895089590E080E00895CF93CFB7F89454
:102170008091D901811127C0EDEAF6E08491E1EC6C
:10218000F6E09491E82FF0E0EE0FFF1FEB57F94FC8
:10219000A591B491EC91E92321F461E08AE00E94D9
:1021A000F90361E08AE00E9427048CB580618CBD50
:1021B0008CB580648CBD61E08DE00E94270461E0F5
:1021C0008BE00E9427048091D9018F5F8093D90111
:1021D000CFBFCF91089560E084E00E94F90360E0F2
:1021E00085E00C94F903813021F0823051F00C9499
:1021F000EB1061E084E00E94F90360E085E00C945C
:10220000F90360E084E00E94F90361E0F7CFFC018C
:1022100001900020E9F73197AF01481B590BBC0131
:1022200087EF91E00C94C7048F929F92AF92BF9278
:102230000F931F93CF93DF93CDB7DEB7A1970FB660
:10224000F894DEBF0FBECDBF19A2423008F44AE0B9
:102250008E010F5D1F4F842E912CB12CA12CA50156
:1022600094010E94D320E62FB901CA01EA30F4F4A8
:10227000E05DD801EE938D01232B242B252B79F7DC
:1022800090E080E0109719F0CD010E940711A1960F
:102290000FB6F894DEBF0FBECDBFDF91CF911F9177
:1022A0000F91BF90AF909F908F900895E95CE1CF20
:1022B000CF93DF930E940711EC0180E391E00E942D
:1022C00007118C0F9D1FDF91CF910895EF92FF9220
:1022D0000F931F93CF93DF9370E060E087EF91E05F
:1022E0000E94000FC3EED1E08FEF9FEF9FA38EA35C
:1022F0009DA38CA381E088A789A782E0E82EF12C1A
:10230000F9A2E8A284E090E09BA38AA383E391E092
:102310000E9458110FEF1FEF2CE430E04BE050E02B
:1023200070E060E087EF91E00E941208F9A2E8A255
:102330008DE090E09BA38AA38BE391E00E9458116B
:10234000F9A2E8A286E190E09BA38AA382E491E04F
:102350000E945811F9A2E8A28FE190E09BA38AA302
:102360008BE491E00E945811F9A2E8A288E290E083
:102370009BA38AA384E591E00E945811F9A2E8A2E8
:1023800081E390E09BA38AA38DE591E00E94581120
:10239000F9A2E8A28AE390E09BA38AA387E691E0F2
:1023A0000E945811F9A2E8A283E490E09BA38AA3BB
:1023B00080E791E00E945811F9A2E8A28CE490E035
:1023C0009BA38AA388E791E0DF91CF911F910F91A2
:1023D000FF90EF900C9458110C9407110F931F93DA
:1023E000CF93DF93EC01CB01BA01422F2CE0FE0129
:1023F00011922A95E9F78E0122E00E94471E1B8662
:10240000DF91CF911F910F9108954F925F926F923C
:102410007F92BF92CF92DF92EF92FF920F931F9322
:10242000CF93DF93CDB7DEB7A4970FB6F894DEBF96
:102430000FBECDBFB82E390124E0CE0149960E94CF
:10244000EE1124E0B301A801CE010D960E94EE1119
:1024500024E0B701A601CE0101960E94EE1170E0C2
:1024600060E087EF91E00E94000F03EE11E08FEF34
:102470009FEFF80197A386A395A384A381E080A78B
:1024800081A782E0E82EF12CF1A2E0A284E090E0A6
:1024900093A382A38FE791E00E945811F801F1A263
:1024A000E0A28DE090E093A382A36B2D70E06F5FBC
:1024B0007F4F90E080E04AE00E94141183E891E0B1
:1024C0000E94EC114AE064E070E080E090E00E943D
:1024D000141180E391E00E940711F801F1A2E0A23B
:1024E00086E190E093A382A385E891E00E94EC113D
:1024F000CE0149960E945811F801F1A2E0A28FE1A5
:1025000090E093A382A388E891E00E94EC11CE01B1
:102510000D960E945811F801F1A2E0A288E290E025
:1025200093A382A38BE891E00E94EC11CE01019667
:102530000E945811F801F1A2E0A281E390E093A378
:1025400082A38EE891E00E945811A4960FB6F894E9
:10255000DEBF0FBECDBFDF91CF911F910F91FF90D6
:10256000EF90DF90CF90BF907F906F905F904F90F3
:1025700008954F925F926F927F928F929F92AF9247
:10258000BF92CF92DF92EF92FF920F931F93CF9360
:102590006B017C01742EAC019B010E9450238823A7
:1025A00099F086E991E0CF911F910F91FF90EF9004
:1025B000DF90CF90BF90AF909F908F907F906F9063
:1025C0005F904F900C94071146015701E894B7F8BB
:1025D0002FEF3FEF4FE75FE7C501B4010E945023A3
:1025E00081110DC02FEF3FEF4FE75FE7C501B40149
:1025F0000E94862118161CF48AE991E0D4CF2FEFAF
:102600003FEF4FE75FE4C701B6010E94DE221816D4
:102610001CF48EE991E0C7CF2FEF3FEF4FE75FEC5F
:10262000C701B6010E94862187FDF3CF20E030E08C
:10263000A901C701B6010E94862110E000E087FFD2
:102640000AC06DE287EF91E00E94570D8C01F7FA06
:10265000F094F7F8F094C0E060E070E080E09FE371
:102660007C1641F020E030E040E251E40E948B21F2
:10267000CF5FF6CFA70196010E941A212B013C01E2
:102680000E94FD214B015C014AE00E9414117C0173
:10269000E00EF11ECC23C1F1C501B4010E942C2231
:1026A0009B01AC01C301B2010E9419214B015C01E5
:1026B0006EE287EF91E00E94570DE80EF91EC150BF
:1026C00018F120E030E040E251E4C501B4010E947D
:1026D000E3222B013C010E94FD214B01B12CA12CD6
:1026E0004AE0C501B4010E941411E80EF91EC501AB
:1026F000B4010E942C229B01AC01C301B2010E94D3
:1027000019214B015C01DBCFC701CF911F910F91C4
:10271000FF90EF90DF90CF90BF90AF909F908F9001
:102720007F906F905F904F9008950E945523CF92B5
:10273000DF92EF92FF920F931F93CF93DF93EC0101
:102740006A017B01C114D104E104F10439F4C12C04
:1027500028E4D22E28EEE22EFF24F394FE01FF9609
:10276000C082D182E282F38281E28DAF80E28EAFBD
:10277000369610818FA987FD07C061E00E9427046B
:1027800061E08FA90E94F90361E088AD0E942704EF
:1027900061E088AD0E94F9038DA9811151C040E02C
:1027A00052E16AE770E0C416D506E606F70640F483
:1027B00076956795579547958F5F8630A1F787E0A7
:1027C000212F2C702065982F9695922B99A3809598
:1027D00081708AA3812F90E0B0E0A0E08BA39CA33E
:1027E000ADA3BEA30E94B5108EA987FD75C061E0A0
:1027F0000E94270461E08EA90E94F90364E670E05C
:1028000080E090E00E94880460E08EA90E94F903B5
:1028100064E670E080E090E00E94880461E08EA9A8
:102820000E94F90368EC70E080E090E0DF91CF91C6
:102830001F910F91FF90EF90DF90CF900C94880440
:1028400003EA16E0F12C8130B9F461E08AA50E9418
:10285000270460E08AA50E94F90361E08CA50E942C
:10286000270460E08CA50E94F9038BA587FDBCCFEF
:1028700060E00E942704B8CFF8018491E82FF0E0CF
:10288000EE0FFF1FE157F94F859194912F8D38A1DD
:102890002817390741F461E08F2D0E94270460E07A
:1028A0008F2D0E94F903F3940F5F1F4FF4E1FF1285
:1028B000E3CF61E08EA50E94270461E08EA50E940F
:1028C000F9038FA587FD90CF61E00E94270461E0A6
:1028D0008FA50E94F90388CFDF91CF911F910F91AF
:1028E000FF90EF90DF90CF9008951F920F920FB658
:1028F0000F9211242F933F938F939F93AF93BF9386
:102900008091DB019091DC01A091DD01B091DE01AD
:102910003091DA0123E0230F2D3758F50196A11DE0
:10292000B11D2093DA018093DB019093DC01A09329
:10293000DD01B093DE018091DF019091E001A09173
:10294000E101B091E2010196A11DB11D8093DF016B
:102950009093E001A093E101B093E201BF91AF91A8
:102960009F918F913F912F910F900FBE0F901F90CD
:10297000189526E8230F0296A11DB11DD2CFCF9343
:10298000DF93CDB7DEB7AC970FB6F894DEBF0FBEBE
:10299000CDBF789484B5826084BD84B5816084BDE8
:1029A00085B5826085BD85B5816085BD80916E00ED
:1029B000816080936E00109281008091810082601E
:1029C000809381008091810081608093810080915B
:1029D00080008160809380008091B100846080934A
:1029E000B1008091B00081608093B00080917A0046
:1029F000846080937A0080917A00826080937A006C
:102A000080917A00816080937A0080917A0080685A
:102A100080937A001092C10061E084E00E94270454
:102A200061E085E00E9427040E94EB1060E08FE0E7
:102A30000E94270462E082E00E9427041092E601CF
:102A40000E94D50321E0892B09F020E02093E701C3
:102A50001092E8011092E9011092EA011092EB0144
:102A60001092EC011092F1011092F2011092F30118
:102A70001092F4011092F5011092F6010E94B51027
:102A800061E086E00E94270461E086E00E94F9038D
:102A900062E370E080E090E00E94880410923C02C3
:102AA00040E050E0BA0187EF91E00E94971382E185
:102AB00080933E0280933B0282E580933D028093A7
:102AC0003A028CE490E09093400280933F028CE1C4
:102AD00091E09093420280934102E2E6F6E0149185
:102AE000E3E6F6E0115008F47BC0F4906F0122E0B9
:102AF000C20ED11C31960491E02EE894E7F887EFDE
:102B000091E00E94800680912E0287FD09C0E0912D
:102B10001202F0911302808190912902892380830F
:102B2000E0911402F0911502808190912B0289238B
:102B300080836F2D87EF91E00E94E105E091140200
:102B4000F0911502808190912A02892B8083F601F1
:102B5000912C812CF12C8E149F04FCF480912C027A
:102B60005F01823089F480912702882369F0DF01B8
:102B70006D917D915D0187EF91E00E94A005EFEFDF
:102B80008E1A9E0AF501E7CFBFEFAB1ABB0A64911C
:102B900087EF91E00E94E105F2CF80912E0287FD40
:102BA00009C0E0911202F0911302808190912802F5
:102BB000892B8083F601EE0DFF1D07FF93CF7F0168
:102BC0002FEFE21AF20A649170E06F3F710511F481
:102BD00064EF71E090E080E00E948804F70182CF0A
:102BE00060E087EF91E00E94AD0A60E087EF91E03E
:102BF0000E94AD0A70E060E087EF91E00E94000F54
:102C00008FEF9FEF90930A0280930902909308023E
:102C10008093070281E080930B0280930C028093E3
:102C20000E020E94EB101092E301109279020E94B2
:102C3000661132E0232E312C0E94BB046B017C0113
:102C40000E94D5039C0191E02115310509F090E027
:102C50008091E701981781F0B701A601435D5F4FAE
:102C60006F4F7F4F4093E8015093E9016093EA0171
:102C70007093EB019093E7014091E8015091E901D5
:102C80006091EA017091EB014115510561057105F3
:102C900029F0C416D506E606F706F8F01092E8010A
:102CA0001092E9011092EA011092EB018091E60185
:102CB000981799F09093E6019091EC01232B89F5F8
:102CC00091110BC081E08093EC01C092ED01D09294
:102CD000EE01E092EF01F092F0018091F60188237D
:102CE00009F45FC01092F601813009F074C00E94AF
:102CF000EB101092E301109279020E94661180910C
:102D0000E301813009F431C120F08350833008F4AD
:102D100081C280E090E0892B09F48ECF0E940000F0
:102D200088CF9923D1F21092EC018091ED0190911E
:102D3000EE01A091EF01B091F001A7019601281BCF
:102D4000390B4A0B5B0BDA01C901883B3BE0930767
:102D5000A105B10530F01092F10183E08093F601F6
:102D6000BCCF81329340A105B10508F0B6CF809168
:102D7000F101882321F01092F10182E0EFCF81E090
:102D80008093F101D701C6018C559E4FAF4FBF4FC5
:102D90008093F2019093F301A093F401B093F501B5
:102DA0009CCF8091F101882309F4A9CF8091E6019D
:102DB0008111A5CF8091F2019091F301A091F401CE
:102DC000B091F501C816D906EA06FB0608F497CFBC
:102DD0001092F1018CCF9091E301911190CF82304C
:102DE00009F045C081E08093E301109243020E9404
:102DF000BB04609344027093450280934602909313
:102E00004702609348027093490280934A0290936C
:102E10004B028FEF93E090934D0280934C021092FF
:102E20004F0210924E0210925002109251021092D4
:102E300052021092530210925402109255021092B4
:102E40005602109257028091430280FD0EC081E02D
:102E50000E94F310C12CD12C760197018601B70195
:102E6000A60180E00E9405124ACF82E0F1CF8330B4
:102E700009F04FCF8093E3010E94BB046093580296
:102E80007093590280935A0290935B0260935C02A4
:102E900070935D0280935E0290935F0210926002D5
:102EA0001092610210926202109263021092640208
:102EB0001092650210926602109267020E94EB1057
:102EC0001092830210928202109284021092850264
:102ED00010928602109287022FEF3FEFA9012093F4
:102EE00088023093890240938A0250938B02109299
:102EF0008C0210928D0210928E0210928F0210920C
:102F000079021092780270E060E087EF91E00E9411
:102F1000000F4FEF5FEF50930A0240930902509366
:102F200008024093070281E080930B0280930C0219
:102F3000309204022092030284E090E09093060213
:102F40008093050282EA91E00E94581130920402B7
:102F500020920302ADE0B0E0B0930602A093050218
:102F600087EA91E00E945811CACE0E94BB044B012F
:102F70005C018091480290914902A0914A02B0916F
:102F80004B02A5019401281B390B4A0B5B0BDA019C
:102F9000C9010F97A105B10508F447C08092480206
:102FA00090924902A0924A02B0924B020E949B0367
:102FB00020914C0230914D028217930720F4909398
:102FC0004D0280934C0220914E0230914F022817FF
:102FD000390720F490934F0280934E02409154029F
:102FE000509155026091560270915702480F591F37
:102FF000611D711D40935402509355026093560217
:10300000709357028091500290915102A091520208
:10301000B09153020196A11DB11D8093500290936F
:103020005102A0935202B0935302809144029091B6
:103030004502A0914602B0914702A5019401281BC8
:10304000390B4A0B5B0BDA01C90188389341A105A2
:10305000B10508F45ECE60914C0270914D0290E093
:1030600080E00E942C222AE038E240EA5BE30E94E2
:10307000E32269A77AA78BA79CA760914E02709163
:103080004F0290E080E00E942C222AE038E240EAE1
:103090005BE30E94E3226DA37EA38FA398A7C09059
:1030A0005002D0905102E0905202F0905302C114AD
:1030B000D104E104F10409F477C0609154027091E5
:1030C000550280915602909157020E942C222B01AA
:1030D0003C01C701B6010E942C229B01AC01C30137
:1030E000B2010E948B212AE038E240EA5BE30E94B1
:1030F000E3226B017C010DA11EA12FA138A549A5DA
:103100005AA56BA57CA5809143020E94051280916F
:1031100043028F5F80934302843008F449C00E94C9
:10312000EB1082E08093E30170E060E087EF91E0D4
:103130000E94000F4FEF5FEF50930A024093090285
:10314000509308024093070281E080930B02809322
:103150000C02309204022092030284E090E09093EB
:103160000602809305028FEA91E00E945811309286
:10317000040220920302ADE0B0E0B0930602A093F7
:10318000050286EB91E00E945811309204022092D1
:103190000302E6E1F0E0F0930602E093050282E428
:1031A00091E00E945811B5CDC12CD12C7601A3CF4E
:1031B0002FEF33E030934D0220934C0210924F02D8
:1031C00010924E021092500210925102109252022E
:1031D000109253021092540210925502109256020D
:1031E000109257028092440290924502A0924602A9
:1031F000B09247028092480290924902A0924A02FD
:10320000B0924B0280FD04C081E00E94F31081CD9A
:1032100082E0FBCF0E94BB046B017C018091E30143
:10322000833009F0A2C080915C0290915D02A09170
:103230005E02B0915F02A7019601281B390B4A0B71
:103240005B0BDA01C9010A97A105B10588F1C092AB
:103250005C02D0925D02E0925E02F0925F020E94F8
:103260009B034091600250916102609162027091F3
:103270006302480F591F611D711D409360025093F6
:103280006102609362027093630280916402909184
:103290006502A0916602B09167020196A11DB11D61
:1032A0008093640290936502A0936602B0936702D4
:1032B0008091580290915902A0915A02B0915B02FC
:1032C000A7019601281B390B4A0B5B0BDA01C901D8
:1032D00086399105A105B10508F41BCD2091640242
:1032E00030916502409166025091670221153105C7
:1032F0004105510559F51092690210926802109229
:1033000060021092610210926202109263021092A7
:103310006402109265021092660210926702C092D7
:103320005802D0925902E0925A02F0925B02C09287
:103330005C02D0925D02E0925E02F0925F0281E058
:103340000E94F31084E08093E301E3CC609160027B
:103350007091610280916202909163020E94D32079
:103360003093690220936802CACF843009F0E4C028
:1033700080915C0290915D02A0915E02B0915F022B
:10338000A7019601281B390B4A0B5B0BDA01C90117
:103390000A97A105B10588F1C0925C02D0925D0246
:1033A000E0925E02F0925F020E949B0340916002F5
:1033B000509161026091620270916302480F591F3F
:1033C000611D711D4093600250936102609362021F
:1033D000709363028091640290916502A0916602ED
:1033E000B09167020196A11DB11D80936402909374
:1033F0006502A0936602B093670280915802909193
:103400005902A0915A02B0915B02A7019601281BB4
:10341000390B4A0B5B0BDA01C90186399105A1050D
:10342000B10508F476CC2091640230916502409198
:10343000660250916702211531054105510509F0D9
:1034400069C010926B0210926A022091680230915A
:10345000690280916A0290916B02B0E0A0E0820F55
:10346000931FA11DB11DB595A79597958795AC01A3
:10347000BD0148505109610971090896A11DB11D8E
:1034800077FD57C0411534E053076105710524F0FD
:103490004FEF53E060E070E050937F0240937E0274
:1034A0008115E4E09E07A105B10524F08FEF93E0BC
:1034B000A0E0B0E090938102809380024817590702
:1034C00030F04150510950937F0240937E0285E0D5
:1034D0008093E301C0926C02D0926D02E0926E0282
:1034E000F0926F02C0927002D0927102E09272026A
:1034F000F0927302C0927402D0927502E09276024A
:10350000F092770281E0809378020E94F31010928B
:103510007902FFCB6091600270916102809162023A
:10352000909163020E94D32030936B0220936A0231
:103530008CCF50E040E0B0CF853009F0EACB8091ED
:103540006C0290916D02A0916E02B0916F02260103
:103550003701481A590A6A0A7B0AF8E94F16FAE352
:103560005F066104710408F4EFC00E94EB1086E06E
:103570008093E30180918202909183026C01F12C8F
:10358000E12C892B09F4D6C06091880270918902E0
:1035900080918A0290918B020E942C2220E030E0E0
:1035A0004AE754E40E948B212B013C0160918C027C
:1035B00070918D0280918E0290918F020E942C2238
:1035C00020E030E04AE754E40E948B216DA37EA303
:1035D0008FA398A7609184027091850280918602E2
:1035E000909187020E942C224B015C01C701B60119
:1035F0000E942C229B01AC01C501B4010E948B21C9
:1036000020E030E04AE754E40E948B214B015C014A
:1036100025E0B301A201CE0149960E94EE1125E0FA
:103620004DA15EA16FA178A5CE010D960E94EE116D
:1036300025E0B501A401CE0101960E94EE1170E0D3
:1036400060E087EF91E00E94000F2FEF3FEF309393
:103650000A0220930902309308022093070281E0B6
:1036600080930B0280930C0230920402209203029A
:1036700044E050E050930602409305028CE791E04D
:103680000E94581130920402209203028DE090E0D3
:1036900090930602809305028EEB91E00E94EC115C
:1036A000CE0149960E9458113092040220920302E2
:1036B000A6E1B0E0B0930602A093050281EC91E090
:1036C0000E94EC11CE010D960E9458113092040216
:1036D00020920302EFE1F0E0F0930602E09305028E
:1036E00084EC91E00E94EC11CE0101960E945811E9
:1036F000309204022092030288E290E09093060246
:103700008093050287EC91E00E94EC114AE0C7012A
:10371000B6010E94141180E391E00E9407113092DB
:1037200004022092030281E390E0909306028093CA
:10373000050235CD812C912C54018DA29EA2AFA201
:10374000B8A62401350164CF80917402909175026E
:10375000A0917602B0917702A7019601281B390B40
:103760004A0B5B0BDA01C9018A3F9105A105B1053E
:1037700008F48DC0C0927402D0927502E092760275
:10378000F0927702A0908202B090830270E060E035
:1037900087EF91E00E94000F4FEF5FEF50930A0216
:1037A00040930902509308024093070281E08093FE
:1037B0000B0280930C02309204022092030284E0F8
:1037C00090E090930602809305028AEC91E00E94BB
:1037D00058113092040220920302ADE0B0E0B093A1
:1037E0000602A093050282ED91E00E94EC11C30154
:1037F000B2010E942C2220E030E04AE754E40E940B
:103800008B2141E00E94B91280E391E00E940711F0
:103810003092040220920302E6E1F0E0F093060207
:10382000E093050285ED91E00E94EC1141E060E03B
:1038300070E080E791E40E94B91280E391E00E9479
:10384000071130920402209203022FE130E03093FE
:1038500006022093050287EC91E00E94EC11B5016D
:1038600090E080E04AE00E94141180E391E00E9421
:103870000711309204022092030288E290E09093B4
:103880000602809305028EE891E00E945811809113
:103890007902882339F10E949B035C010E94630432
:1038A000DC01CB012091790240907A0250907B029A
:1038B00060907C0270907D02213009F050C0209110
:1038C0007E0230917F02A216B30608F453C0841919
:1038D0009509A609B7098135934CA105B10510F0EA
:1038E000109279028091700290917102A0917202FF
:1038F000B0917302A7019601281B390B4A0B5B0B91
:10390000DA01C9018A3F9105A105B10508F401CA90
:10391000C0927002D0927102E0927202F092730231
:103920008091780291E0892780937802882309F4B6
:103930006FC081E00E94F3100E94630460937A02DA
:1039400070937B0280937C0290937D028091780239
:10395000882309F460C081E080937902DAC92230BB
:1039600009F0B5CF20918002309181022A153B05E4
:1039700008F0ADCF84199509A609B70920918202F4
:10398000309183022F5F3F4F309383022093820256
:103990008090840290908502A0908602B090870269
:1039A000880E991EAA1EBB1E8092840290928502E8
:1039B000A0928602B092870200918802109189023B
:1039C00020918A0230918B0280179107A207B307DA
:1039D00040F48093880290938902A0938A02B09366
:1039E0008B0200918C0210918D0220918E023091F9
:1039F0008F02081719072A073B0708F071CF809339
:103A00008C0290938D02A0938E02B0938F0268CFA8
:103A10000E94EB1091CF82E09FCFCF93DF93A3EE74
:103A2000B1E01C92E6EEF1E081E1EF0119928A9596
:103A3000E9F757961C921E92569720EF30E0599660
:103A40003C932E93589780E491E05B969C938E93E1
:103A50005A975D963C932E935C975F969C938E93BA
:103A60005E979A961C929A9791961C921E929097A6
:103A700093961C921E92929781E099968C939997B7
:103A800098968C9398972FEF3FEF97963C932E93B1
:103A9000969795963C932E9394979B968C939B9791
:103AA0009C961C929C979E961C921E929D9710929B
:103AB0002C0288E080932D028AE080932E0289E018
:103AC00080932F0210923102109230021092330232
:103AD0001092320210923402109235021092360285
:103AE00010923702109238021092390288ED91E05C
:103AF000D4969C938E93D397ECEAF6E0E491F0E0B1
:103B0000EE0FFF1FE157F94F85919491D2969C9348
:103B10008E93D197E0ECF6E0849180932A02EDEA4F
:103B2000F6E0E491F0E0EE0FFF1FE157F94F259129
:103B30003491D0963C932E939F97E1ECF6E0E4917C
:103B4000E0932802E095E0932902E82FE095E093C6
:103B50002B0210923A0210923B0210923C0284E037
:103B600091E055969C938E93549710923D0210923B
:103B70003E021092430210924402109245021092AB
:103B80004602109247021092480210924902109287
:103B90004A0210924B02ECE4F2E08CE0DF011D924D
:103BA0008A95E9F7109258021092590210925A021F
:103BB00010925B0210925C0210925D0210925E0203
:103BC00010925F02109260021092610210926202E3
:103BD00010926302109264021092650210926602C3
:103BE00010926702109269021092680210926B02A2
:103BF00010926A0210926C0210926D0210926E0284
:103C000010926F0210927002109271021092720262
:103C10001092730210927402109275021092760242
:103C200010927702109278021092790210927A0222
:103C300010927B0210927C0210927D0210927F0201
:103C400010927E028FEF93E0909381028093800226
:103C500010928302109282021092840210928502C6
:103C600010928602109287021092880210928902A6
:103C700010928A0210928B0210928C0210928D0286
:103C800010928E0210928F02DF91CF910895EF92E1
:103C90000F931F93CF93DF93E80134E047FD34E1A6
:103CA000042E000C550B57FF03C051954195510947
:103CB000E32E022F242FAE010E94651ECE01DF915C
:103CC000CF911F910F91EF900895A9E0B0E0EBE63E
:103CD000FEE10C94A2206A01F22EB02E102FFBE31D
:103CE000AF2EA01608F41BE31F5F012F27E0AE01E3
:103CF0004F5F5F4F0E94C41FBC018981982F99704C
:103D0000913009F43FC09BE2E1FC04C09E2D91700C
:103D1000E0FC3AC05E2D5071E82FE87083FF46C08A
:103D200084E0911101C083E0EF2DE81B8F1508F0AE
:103D3000E0E0D6018E2F20E2552351F1992329F09E
:103D4000D6019C93C60101966C0196012D5F3F4FF1
:103D5000E2FE24C08EE4D6018C9391E411969C93EC
:103D6000119712968C93D9018E2F90E281111BC06E
:103D7000E20FF32FF11D10828EEF9FEF2996ECE0FA
:103D80000C94BE209DE2C6CF90E2C4CF2D9381500B
:103D90008111FCCFCE0ED11CE0E0D0CF8EE6D60153
:103DA0008C9391E6DBCF9D938150E0CF482F4470F8
:103DB00082FF3DC084E0911101C083E08F1510F4B3
:103DC000EF2DE81BD6018E2F20E2552309F1992310
:103DD00029F0D6019C93C60101966C0196012D5FD6
:103DE0003F4FE2FE1BC089E4D6018C938EE411960E
:103DF0008C93119786E412968C93D9018E2F90E2C2
:103E0000882309F4B5CF9D938150FACF2D9381502B
:103E10008111FCCFCE0ED11CE0E0D9CF89E6D601CE
:103E20008C938EE611968C93119786E6E4CF9B01D6
:103E300077FF02C030E020E0A1E0B0E0911102C0C5
:103E4000B0E0A0E0F9013196AE0FBF1F8B2C912C92
:103E5000BB2009F461C05401EFEFAE1ABE0AAA0DEF
:103E6000BB1DFA161B0619F014F04F2D4A1B5111F9
:103E700088C0E3FC59C07601A42FB0E2A1114FC065
:103E8000C40ED11C992309F45BC040E0D601119601
:103E9000F60190836D01552309F448C0012F060FE8
:103EA0009A81582F507184FF03C0913309F4015057
:103EB00010160CF047C0093008F008E0EEE2FE2EC4
:103EC0005B01A01AB10885019194819491082F3F5C
:103ED000320729F4D601FC92F60131966F01621780
:103EE000730794F1021713077CF5DB01A21BB30BD8
:103EF000AA24A394B12CAC0EBD1EAA0DBB1D119615
:103F00008C9121503109D601119628153905F4F00C
:103F1000F60180836D01DBCFB12CA12CA0CFF7017E
:103F2000B1937F01A150AACF9111B0CFD601942FA8
:103F300050E302C05D9391509111FCCFC40ED11C8F
:103F400040E0ACCF01E0BACF80E3DBCF621773076C
:103F500031F4963388F4953311F4552369F0F60162
:103F60008083FD01842F90E2811108C0A40FB11D50
:103F70001C9290E080E002CF81E3F1CF91938150D9
:103F8000F3CF911183CF8ACF283008F027E0332771
:103F9000DA01990F311D87FD916000966105710569
:103FA00039F432602E5F3D9330E32A95E1F70895AE
:103FB0009F3F30F080387105610509F03C5F3C5F40
:103FC0003D93913008F08068911DDF93CF931F934C
:103FD0000F93FF92EF92192F987F9695E92F969560
:103FE0009695E90FFF27EE53FF4F99273327EE24CD
:103FF000FF24A701E70105900894079428F4360FE1
:10400000E71EF81E491F511D660F771F881F991F55
:104010000694A1F70590079428F4E70EF81E491FAF
:10402000561FC11D770F881F991F661F0694A1F7A1
:104030000590079428F4F80E491F561FC71FD11D7D
:10404000880F991F661F771F0694A1F705900794A4
:1040500020F4490F561FC71FD81F990F661F771FDF
:10406000881F0694A9F784911095177041F0D69592
:10407000C79557954795F794E7941A95C1F7E8E6E1
:10408000F0E06894159015913591659195910590A2
:104090007FE27395E118F10A430B560BC90BD00967
:1040A000C0F7E10CF11E431F561FC91FD01D7EF43F
:1040B000703311F48A95E6CFE894015030F0080F80
:1040C0000AF40027021708F4202F2395022F7A33D1
:1040D00028F079E37D932A95E9F710C07D932A951E
:1040E00089F6069497956795379517951794E11873
:1040F000F10A430B560BC90BD00998F023957E911A
:1041000073957A3308F070E37C932013B8F77E91AF
:1041100070617D9330F0839571E37D9370E32A9510
:10412000E1F71124EF90FF900F911F91CF91DF9154
:10413000992787FD909508952F923F924F925F9215
:104140006F927F928F929F92AF92BF92CF92DF92A7
:10415000EF92FF920F931F93CF93DF93CDB7DEB70C
:10416000CA1BDB0B0FB6F894DEBF0FBECDBF0994A0
:104170002A88398848885F846E847D848C849B84F7
:10418000AA84B984C884DF80EE80FD800C811B8105
:10419000AA81B981CE0FD11D0FB6F894DEBF0FBE34
:1041A000CDBFED010895A1E21A2EAA1BBB1BFD0194
:1041B0000DC0AA1FBB1FEE1FFF1FA217B307E40706
:1041C000F50720F0A21BB30BE40BF50B661F771F5E
:1041D000881F991F1A9469F760957095809590953E
:1041E0009B01AC01BD01CF0108950E94FD20332346
:1041F00012F48A1B9B0B0C940E21A29FB001B39F5B
:10420000C001A39F700D811D1124911DB29F700DDF
:10421000811D1124911D08950E94FD20B7FF08956E
:10422000821B930B0895EE0FFF1F0590F491E02D74
:1042300009945058BB27AA270E9431210C94A4222C
:104240000E94962238F00E949D2220F039F49F3F70
:1042500019F426F40C9493220EF4E095E7FB0C94E9
:104260008D22E92F0E94B52258F3BA17620773070F
:104270008407950720F079F4A6F50C94D7220EF464
:10428000E0950B2EBA2FA02D0B01B90190010C0166
:10429000CA01A0011124FF27591B99F0593F50F47E
:1042A000503E68F11A16F040A22F232F342F4427D6
:1042B000585FF3CF469537952795A795F0405395CE
:1042C000C9F77EF41F16BA0B620B730B840BBAF09E
:1042D0009150A1F0FF0FBB1F661F771F881FC2F709
:1042E0000EC0BA0F621F731F841F48F4879577951D
:1042F0006795B795F7959E3F08F0B0CF9395880FD7
:1043000008F09927EE0F9795879508950E946922E6
:1043100008F481E008950E949F210C94A4220E9439
:104320009D2258F00E94962240F029F45F3F29F028
:104330000C948D2251110C94D8220C9493220E943B
:10434000B52268F39923B1F3552391F3951B550BCF
:10435000BB27AA2762177307840738F09F5F5F4F58
:10436000220F331F441FAA1FA9F335D00E2E3AF097
:10437000E0E832D091505040E695001CCAF72BD0AF
:10438000FE2F29D0660F771F881FBB1F2617370700
:104390004807AB07B0E809F0BB0B802DBF01FF2732
:1043A00093585F4F3AF09E3F510578F00C948D2260
:1043B0000C94D8225F3FE4F3983ED4F3869577952A
:1043C0006795B795F7959F5FC9F7880F911D9695EB
:1043D000879597F90895E1E0660F771F881FBB1F47
:1043E000621773078407BA0720F0621B730B840BF4
:1043F000BA0BEE1F88F7E09508950E94BD2288F061
:104400009F5798F0B92F9927B751B0F0E1F0660F98
:10441000771F881F991F1AF0BA95C9F714C0B130D9
:1044200091F00E94D722B1E008950C94D722672F13
:10443000782F8827B85F39F0B93FCCF38695779508
:104440006795B395D9F73EF49095809570956195F1
:104450007F4F8F4F9F4F0895E89409C097FB3EF41C
:1044600090958095709561957F4F8F4F9F4F9923C1
:10447000A9F0F92F96E9BB279395F695879577953F
:104480006795B795F111F8CFFAF4BB0F11F460FFFF
:104490001BC06F5F7F4F8F4F9F4F16C0882311F057
:1044A00096E911C0772321F09EE8872F762F05C06B
:1044B000662371F096E8862F70E060E02AF09A9506
:1044C000660F771F881FDAF7880F9695879597F9FB
:1044D0000895990F0008550FAA0BE0E8FEEF161695
:1044E0001706E807F907C0F012161306E407F507E8
:1044F00098F0621B730B840B950B39F40A2661F05C
:10450000232B242B252B21F408950A2609F4A140FE
:10451000A6958FEF811D811D089597F99F6780E80B
:1045200070E060E008959FEF80EC089500240A9405
:104530001616170618060906089500240A9412167E
:104540001306140605060895092E0394000C11F4B1
:10455000882352F0BB0F40F4BF2B11F460FF04C05E
:104560006F5F7F4F8F4F9F4F089557FD9058440FB7
:10457000551F59F05F3F71F04795880F97FB991FC2
:1045800061F09F3F79F0879508951216130614067F
:10459000551FF2CF4695F1DF08C01616170618060C
:1045A000991FF1CF86957105610508940895E894E7
:1045B000BB2766277727CB0197F908950E946922C8
:1045C00008F48FEF08950E94F6220C94A4220E9412
:1045D000962238F00E949D2220F0952311F00C9431
:1045E0008D220C94932211240C94D8220E94B5227F
:1045F00070F3959FC1F3950F50E0551F629FF00136
:10460000729FBB27F00DB11D639FAA27F00DB11D4E
:10461000AA1F649F6627B00DA11D661F829F2227D7
:10462000B00DA11D621F739FB00DA11D621F839F5E
:10463000A00D611D221F749F3327A00D611D231F34
:10464000849F600D211D822F762F6A2F11249F5782
:1046500050409AF0F1F088234AF0EE0FFF1FBB1F85
:10466000661F771F881F91505040A9F79E3F510544
:1046700080F00C948D220C94D8225F3FE4F3983E96
:10468000D4F3869577956795B795F795E7959F5FEE
:10469000C1F7FE2B880F911D9695879597F9089580
:1046A0000E946922880B990B089581E090E0F894AC
:0846B0000C945A23F894FFCF8B
:1046B80000000000570DC704B210B110A6062B0A5F
:1046C800F90990090F0950090410110BAD0A890660
:1046D800A10712088308000F880E290E97132706D2
:1046E8000D0A004C6174656E63790032676C617302
:1046F80073007461703D6D656E7500327461703D54
:1047080063616C00686F6C6433733D540063616C63
:104718002052422035730078342056737461740037
:104728006C617420313573004C4544206D7300432F
:10473800414C002F004D6E004D78004176007461A9
:10474800703D657363006E616E00696E66006F761A
:1047580066005761697400414443207265660043EE
:10476800414C204F4B004C4544206F6666006D6EEF
:10477800006D78006176006E20004C4154207275FF
:084788006E00742000542000B3
:00000001FF
